{
    "_format": "hh-sol-artifact-1",
    "contractName": "Box",
    "sourceName": "contracts/NFTs/Box.sol",
    "abi": [
        {
            "inputs": [
                {
                    "internalType": "string",
                    "name": "uri",
                    "type": "string"
                },
                {
                    "internalType": "contract INftTransferManager",
                    "name": "nftTransferManager",
                    "type": "address"
                }
            ],
            "stateMutability": "nonpayable",
            "type": "constructor"
        },
        {
            "anonymous": false,
            "inputs": [
                {
                    "indexed": true,
                    "internalType": "address",
                    "name": "account",
                    "type": "address"
                },
                {
                    "indexed": true,
                    "internalType": "address",
                    "name": "operator",
                    "type": "address"
                },
                {
                    "indexed": false,
                    "internalType": "bool",
                    "name": "approved",
                    "type": "bool"
                }
            ],
            "name": "ApprovalForAll",
            "type": "event"
        },
        {
            "anonymous": false,
            "inputs": [
                {
                    "indexed": true,
                    "internalType": "bytes32",
                    "name": "role",
                    "type": "bytes32"
                },
                {
                    "indexed": true,
                    "internalType": "bytes32",
                    "name": "previousAdminRole",
                    "type": "bytes32"
                },
                {
                    "indexed": true,
                    "internalType": "bytes32",
                    "name": "newAdminRole",
                    "type": "bytes32"
                }
            ],
            "name": "RoleAdminChanged",
            "type": "event"
        },
        {
            "anonymous": false,
            "inputs": [
                {
                    "indexed": true,
                    "internalType": "bytes32",
                    "name": "role",
                    "type": "bytes32"
                },
                {
                    "indexed": true,
                    "internalType": "address",
                    "name": "account",
                    "type": "address"
                },
                {
                    "indexed": true,
                    "internalType": "address",
                    "name": "sender",
                    "type": "address"
                }
            ],
            "name": "RoleGranted",
            "type": "event"
        },
        {
            "anonymous": false,
            "inputs": [
                {
                    "indexed": true,
                    "internalType": "bytes32",
                    "name": "role",
                    "type": "bytes32"
                },
                {
                    "indexed": true,
                    "internalType": "address",
                    "name": "account",
                    "type": "address"
                },
                {
                    "indexed": true,
                    "internalType": "address",
                    "name": "sender",
                    "type": "address"
                }
            ],
            "name": "RoleRevoked",
            "type": "event"
        },
        {
            "anonymous": false,
            "inputs": [
                {
                    "indexed": true,
                    "internalType": "address",
                    "name": "operator",
                    "type": "address"
                },
                {
                    "indexed": true,
                    "internalType": "address",
                    "name": "from",
                    "type": "address"
                },
                {
                    "indexed": true,
                    "internalType": "address",
                    "name": "to",
                    "type": "address"
                },
                {
                    "indexed": false,
                    "internalType": "uint256[]",
                    "name": "ids",
                    "type": "uint256[]"
                },
                {
                    "indexed": false,
                    "internalType": "uint256[]",
                    "name": "values",
                    "type": "uint256[]"
                }
            ],
            "name": "TransferBatch",
            "type": "event"
        },
        {
            "anonymous": false,
            "inputs": [
                {
                    "indexed": true,
                    "internalType": "address",
                    "name": "operator",
                    "type": "address"
                },
                {
                    "indexed": true,
                    "internalType": "address",
                    "name": "from",
                    "type": "address"
                },
                {
                    "indexed": true,
                    "internalType": "address",
                    "name": "to",
                    "type": "address"
                },
                {
                    "indexed": false,
                    "internalType": "uint256",
                    "name": "id",
                    "type": "uint256"
                },
                {
                    "indexed": false,
                    "internalType": "uint256",
                    "name": "value",
                    "type": "uint256"
                }
            ],
            "name": "TransferSingle",
            "type": "event"
        },
        {
            "anonymous": false,
            "inputs": [
                {
                    "indexed": false,
                    "internalType": "string",
                    "name": "value",
                    "type": "string"
                },
                {
                    "indexed": true,
                    "internalType": "uint256",
                    "name": "id",
                    "type": "uint256"
                }
            ],
            "name": "URI",
            "type": "event"
        },
        {
            "inputs": [],
            "name": "DEFAULT_ADMIN_ROLE",
            "outputs": [
                {
                    "internalType": "bytes32",
                    "name": "",
                    "type": "bytes32"
                }
            ],
            "stateMutability": "view",
            "type": "function"
        },
        {
            "inputs": [],
            "name": "OPERATOR",
            "outputs": [
                {
                    "internalType": "bytes32",
                    "name": "",
                    "type": "bytes32"
                }
            ],
            "stateMutability": "view",
            "type": "function"
        },
        {
            "inputs": [
                {
                    "internalType": "address",
                    "name": "operator",
                    "type": "address"
                }
            ],
            "name": "addOperator",
            "outputs": [],
            "stateMutability": "nonpayable",
            "type": "function"
        },
        {
            "inputs": [
                {
                    "internalType": "address",
                    "name": "account",
                    "type": "address"
                },
                {
                    "internalType": "uint256",
                    "name": "id",
                    "type": "uint256"
                }
            ],
            "name": "balanceOf",
            "outputs": [
                {
                    "internalType": "uint256",
                    "name": "",
                    "type": "uint256"
                }
            ],
            "stateMutability": "view",
            "type": "function"
        },
        {
            "inputs": [
                {
                    "internalType": "address[]",
                    "name": "accounts",
                    "type": "address[]"
                },
                {
                    "internalType": "uint256[]",
                    "name": "ids",
                    "type": "uint256[]"
                }
            ],
            "name": "balanceOfBatch",
            "outputs": [
                {
                    "internalType": "uint256[]",
                    "name": "",
                    "type": "uint256[]"
                }
            ],
            "stateMutability": "view",
            "type": "function"
        },
        {
            "inputs": [
                {
                    "internalType": "bytes32",
                    "name": "role",
                    "type": "bytes32"
                }
            ],
            "name": "getRoleAdmin",
            "outputs": [
                {
                    "internalType": "bytes32",
                    "name": "",
                    "type": "bytes32"
                }
            ],
            "stateMutability": "view",
            "type": "function"
        },
        {
            "inputs": [
                {
                    "internalType": "bytes32",
                    "name": "role",
                    "type": "bytes32"
                },
                {
                    "internalType": "address",
                    "name": "account",
                    "type": "address"
                }
            ],
            "name": "grantRole",
            "outputs": [],
            "stateMutability": "nonpayable",
            "type": "function"
        },
        {
            "inputs": [
                {
                    "internalType": "bytes32",
                    "name": "role",
                    "type": "bytes32"
                },
                {
                    "internalType": "address",
                    "name": "account",
                    "type": "address"
                }
            ],
            "name": "hasRole",
            "outputs": [
                {
                    "internalType": "bool",
                    "name": "",
                    "type": "bool"
                }
            ],
            "stateMutability": "view",
            "type": "function"
        },
        {
            "inputs": [
                {
                    "internalType": "address",
                    "name": "account",
                    "type": "address"
                },
                {
                    "internalType": "address",
                    "name": "operator",
                    "type": "address"
                }
            ],
            "name": "isApprovedForAll",
            "outputs": [
                {
                    "internalType": "bool",
                    "name": "",
                    "type": "bool"
                }
            ],
            "stateMutability": "view",
            "type": "function"
        },
        {
            "inputs": [
                {
                    "internalType": "address[]",
                    "name": "_receivers",
                    "type": "address[]"
                },
                {
                    "internalType": "uint256[]",
                    "name": "_types",
                    "type": "uint256[]"
                },
                {
                    "internalType": "uint256[]",
                    "name": "_amounts",
                    "type": "uint256[]"
                }
            ],
            "name": "mintManyToMany",
            "outputs": [],
            "stateMutability": "nonpayable",
            "type": "function"
        },
        {
            "inputs": [
                {
                    "internalType": "uint256",
                    "name": "",
                    "type": "uint256"
                }
            ],
            "name": "mintedTotal",
            "outputs": [
                {
                    "internalType": "uint256",
                    "name": "",
                    "type": "uint256"
                }
            ],
            "stateMutability": "view",
            "type": "function"
        },
        {
            "inputs": [],
            "name": "nftTransferManager",
            "outputs": [
                {
                    "internalType": "contract INftTransferManager",
                    "name": "",
                    "type": "address"
                }
            ],
            "stateMutability": "view",
            "type": "function"
        },
        {
            "inputs": [
                {
                    "internalType": "address",
                    "name": "",
                    "type": "address"
                },
                {
                    "internalType": "address",
                    "name": "",
                    "type": "address"
                },
                {
                    "internalType": "uint256[]",
                    "name": "",
                    "type": "uint256[]"
                },
                {
                    "internalType": "uint256[]",
                    "name": "",
                    "type": "uint256[]"
                },
                {
                    "internalType": "bytes",
                    "name": "",
                    "type": "bytes"
                }
            ],
            "name": "onERC1155BatchReceived",
            "outputs": [
                {
                    "internalType": "bytes4",
                    "name": "",
                    "type": "bytes4"
                }
            ],
            "stateMutability": "nonpayable",
            "type": "function"
        },
        {
            "inputs": [
                {
                    "internalType": "address",
                    "name": "",
                    "type": "address"
                },
                {
                    "internalType": "address",
                    "name": "",
                    "type": "address"
                },
                {
                    "internalType": "uint256",
                    "name": "",
                    "type": "uint256"
                },
                {
                    "internalType": "uint256",
                    "name": "",
                    "type": "uint256"
                },
                {
                    "internalType": "bytes",
                    "name": "",
                    "type": "bytes"
                }
            ],
            "name": "onERC1155Received",
            "outputs": [
                {
                    "internalType": "bytes4",
                    "name": "",
                    "type": "bytes4"
                }
            ],
            "stateMutability": "nonpayable",
            "type": "function"
        },
        {
            "inputs": [
                {
                    "internalType": "address",
                    "name": "operator",
                    "type": "address"
                }
            ],
            "name": "removeOperator",
            "outputs": [],
            "stateMutability": "nonpayable",
            "type": "function"
        },
        {
            "inputs": [
                {
                    "internalType": "bytes32",
                    "name": "role",
                    "type": "bytes32"
                },
                {
                    "internalType": "address",
                    "name": "account",
                    "type": "address"
                }
            ],
            "name": "renounceRole",
            "outputs": [],
            "stateMutability": "nonpayable",
            "type": "function"
        },
        {
            "inputs": [
                {
                    "internalType": "bytes32",
                    "name": "role",
                    "type": "bytes32"
                },
                {
                    "internalType": "address",
                    "name": "account",
                    "type": "address"
                }
            ],
            "name": "revokeRole",
            "outputs": [],
            "stateMutability": "nonpayable",
            "type": "function"
        },
        {
            "inputs": [
                {
                    "internalType": "address",
                    "name": "from",
                    "type": "address"
                },
                {
                    "internalType": "address",
                    "name": "to",
                    "type": "address"
                },
                {
                    "internalType": "uint256[]",
                    "name": "ids",
                    "type": "uint256[]"
                },
                {
                    "internalType": "uint256[]",
                    "name": "amounts",
                    "type": "uint256[]"
                },
                {
                    "internalType": "bytes",
                    "name": "data",
                    "type": "bytes"
                }
            ],
            "name": "safeBatchTransferFrom",
            "outputs": [],
            "stateMutability": "nonpayable",
            "type": "function"
        },
        {
            "inputs": [
                {
                    "internalType": "address",
                    "name": "from",
                    "type": "address"
                },
                {
                    "internalType": "address",
                    "name": "to",
                    "type": "address"
                },
                {
                    "internalType": "uint256",
                    "name": "id",
                    "type": "uint256"
                },
                {
                    "internalType": "uint256",
                    "name": "amount",
                    "type": "uint256"
                },
                {
                    "internalType": "bytes",
                    "name": "data",
                    "type": "bytes"
                }
            ],
            "name": "safeTransferFrom",
            "outputs": [],
            "stateMutability": "nonpayable",
            "type": "function"
        },
        {
            "inputs": [
                {
                    "internalType": "address",
                    "name": "receiver",
                    "type": "address"
                },
                {
                    "internalType": "uint256",
                    "name": "typeId",
                    "type": "uint256"
                },
                {
                    "internalType": "uint256",
                    "name": "amount",
                    "type": "uint256"
                }
            ],
            "name": "selfTransfer",
            "outputs": [],
            "stateMutability": "nonpayable",
            "type": "function"
        },
        {
            "inputs": [
                {
                    "internalType": "address",
                    "name": "operator",
                    "type": "address"
                },
                {
                    "internalType": "bool",
                    "name": "approved",
                    "type": "bool"
                }
            ],
            "name": "setApprovalForAll",
            "outputs": [],
            "stateMutability": "nonpayable",
            "type": "function"
        },
        {
            "inputs": [
                {
                    "internalType": "contract INftTransferManager",
                    "name": "_nftTransferManager",
                    "type": "address"
                }
            ],
            "name": "setNftTransferManager",
            "outputs": [],
            "stateMutability": "nonpayable",
            "type": "function"
        },
        {
            "inputs": [
                {
                    "internalType": "bytes4",
                    "name": "interfaceId",
                    "type": "bytes4"
                }
            ],
            "name": "supportsInterface",
            "outputs": [
                {
                    "internalType": "bool",
                    "name": "",
                    "type": "bool"
                }
            ],
            "stateMutability": "view",
            "type": "function"
        },
        {
            "inputs": [
                {
                    "internalType": "uint256",
                    "name": "",
                    "type": "uint256"
                }
            ],
            "name": "uri",
            "outputs": [
                {
                    "internalType": "string",
                    "name": "",
                    "type": "string"
                }
            ],
            "stateMutability": "view",
            "type": "function"
        }
    ],
    "bytecode": "0x60806040523480156200001157600080fd5b506040516200267038038062002670833981016040819052620000349162000171565b81818162000042816200007f565b5060016004556200005560003362000091565b600580546001600160a01b0319166001600160a01b039290921691909117905550620003b4915050565b60026200008d8282620002e8565b5050565b60008281526003602090815260408083206001600160a01b03851684529091529020546200008d908390839060ff166200008d5760008281526003602090815260408083206001600160a01b03851684529091529020805460ff19166001179055620000fa3390565b6001600160a01b0316816001600160a01b0316837f2f8788117e7eff1d82e926ec794901d17c78024a50270940304540a733656f0d60405160405180910390a45050565b634e487b7160e01b600052604160045260246000fd5b80516001600160a01b03811681146200016c57600080fd5b919050565b600080604083850312156200018557600080fd5b82516001600160401b03808211156200019d57600080fd5b818501915085601f830112620001b257600080fd5b815181811115620001c757620001c76200013e565b604051601f8201601f19908116603f01168101908382118183101715620001f257620001f26200013e565b816040528281526020935088848487010111156200020f57600080fd5b600091505b8282101562000233578482018401518183018501529083019062000214565b60008484830101528096505050506200024e81860162000154565b925050509250929050565b600181811c908216806200026e57607f821691505b6020821081036200028f57634e487b7160e01b600052602260045260246000fd5b50919050565b601f821115620002e357600081815260208120601f850160051c81016020861015620002be5750805b601f850160051c820191505b81811015620002df57828155600101620002ca565b5050505b505050565b81516001600160401b038111156200030457620003046200013e565b6200031c8162000315845462000259565b8462000295565b602080601f8311600181146200035457600084156200033b5750858301515b600019600386901b1c1916600185901b178555620002df565b600085815260208120601f198616915b82811015620003855788860151825594840194600190910190840162000364565b5085821015620003a45787850151600019600388901b60f8161c191681555b5050505050600190811b01905550565b6122ac80620003c46000396000f3fe608060405234801561001057600080fd5b50600436106101575760003560e01c806391d14854116100c3578063b3aee4a31161007c578063b3aee4a31461031d578063bc197c8114610330578063d547741f14610368578063e985e9c51461037b578063f23a6e61146103b7578063f242432a146103d657600080fd5b806391d14854146102b4578063983d2737146102c75780639870d7fe146102dc578063a217fddf146102ef578063a22cb465146102f7578063ac8a584a1461030a57600080fd5b80632f2ff15d116101155780632f2ff15d14610210578063302b29941461022357806332cdd84d1461023657806336568abe146102615780634e1273f41461027457806360d008f21461029457600080fd5b8062fdd58e1461015c57806301ffc9a714610182578063081e8d06146101a55780630e89341c146101ba578063248a9ca3146101da5780632eb2c2d6146101fd575b600080fd5b61016f61016a36600461180e565b6103e9565b6040519081526020015b60405180910390f35b610195610190366004611850565b610482565b6040519015158152602001610179565b6101b86101b33660046118b9565b61048d565b005b6101cd6101c8366004611953565b610709565b60405161017991906119bc565b61016f6101e8366004611953565b60009081526003602052604090206001015490565b6101b861020b366004611b1b565b61079d565b6101b861021e366004611bc9565b6107e9565b6101b8610231366004611bf9565b610813565b600554610249906001600160a01b031681565b6040516001600160a01b039091168152602001610179565b6101b861026f366004611bc9565b61085c565b610287610282366004611c16565b6108da565b6040516101799190611d1e565b61016f6102a2366004611953565b60066020526000908152604090205481565b6101956102c2366004611bc9565b610a04565b61016f60008051602061225783398151915281565b6101b86102ea366004611bf9565b610a2f565b61016f600081565b6101b8610305366004611d31565b610a71565b6101b8610318366004611bf9565b610a7c565b6101b861032b366004611d64565b610abb565b61034f61033e366004611b1b565b63bc197c8160e01b95945050505050565b6040516001600160e01b03199091168152602001610179565b6101b8610376366004611bc9565b610c00565b610195610389366004611d99565b6001600160a01b03918216600090815260016020908152604080832093909416825291909152205460ff1690565b61034f6103c5366004611dc7565b63f23a6e6160e01b95945050505050565b6101b86103e4366004611dc7565b610c25565b60006001600160a01b0383166104595760405162461bcd60e51b815260206004820152602a60248201527f455243313135353a2061646472657373207a65726f206973206e6f742061207660448201526930b634b21037bbb732b960b11b60648201526084015b60405180910390fd5b506000818152602081815260408083206001600160a01b03861684529091529020545b92915050565b600061047c82610c6a565b610498600033610a04565b6104b45760405162461bcd60e51b815260040161045090611e30565b6002600454036105065760405162461bcd60e51b815260206004820152601f60248201527f5265656e7472616e637947756172643a207265656e7472616e742063616c6c006044820152606401610450565b6002600455841580159061051957508483145b801561052457508085145b6105705760405162461bcd60e51b815260206004820152601a60248201527f53656d694e4654426173653a20496e76616c696420696e7075740000000000006044820152606401610450565b60005b858110156106fb57600087878381811061058f5761058f611e67565b90506020020160208101906105a49190611bf9565b6001600160a01b0316141580156105d3575060008383838181106105ca576105ca611e67565b90506020020135115b61061f5760405162461bcd60e51b815260206004820152601a60248201527f53656d694e4654426173653a20496e76616c696420696e7075740000000000006044820152606401610450565b82828281811061063157610631611e67565b905060200201356006600087878581811061064e5761064e611e67565b90506020020135815260200190815260200160002060008282546106729190611e93565b909155506106e9905087878381811061068d5761068d611e67565b90506020020160208101906106a29190611bf9565b8686848181106106b4576106b4611e67565b905060200201358585858181106106cd576106cd611e67565b9050602002013560405180602001604052806000815250610c8f565b806106f381611ea6565b915050610573565b505060016004555050505050565b60606002805461071890611ebf565b80601f016020809104026020016040519081016040528092919081815260200182805461074490611ebf565b80156107915780601f1061076657610100808354040283529160200191610791565b820191906000526020600020905b81548152906001019060200180831161077457829003601f168201915b50505050509050919050565b6001600160a01b0385163314806107b957506107b98533610389565b6107d55760405162461bcd60e51b815260040161045090611ef9565b6107e28585858585610db2565b5050505050565b60008281526003602052604090206001015461080481610f9d565b61080e8383610fa7565b505050565b61081e600033610a04565b61083a5760405162461bcd60e51b815260040161045090611e30565b600580546001600160a01b0319166001600160a01b0392909216919091179055565b6001600160a01b03811633146108cc5760405162461bcd60e51b815260206004820152602f60248201527f416363657373436f6e74726f6c3a2063616e206f6e6c792072656e6f756e636560448201526e103937b632b9903337b91039b2b63360891b6064820152608401610450565b6108d6828261102d565b5050565b6060815183511461093f5760405162461bcd60e51b815260206004820152602960248201527f455243313135353a206163636f756e747320616e6420696473206c656e677468604482015268040dad2e6dac2e8c6d60bb1b6064820152608401610450565b6000835167ffffffffffffffff81111561095b5761095b6119cf565b604051908082528060200260200182016040528015610984578160200160208202803683370190505b50905060005b84518110156109fc576109cf8582815181106109a8576109a8611e67565b60200260200101518583815181106109c2576109c2611e67565b60200260200101516103e9565b8282815181106109e1576109e1611e67565b60209081029190910101526109f581611ea6565b905061098a565b509392505050565b60009182526003602090815260408084206001600160a01b0393909316845291905290205460ff1690565b610a3a600033610a04565b610a565760405162461bcd60e51b815260040161045090611e30565b610a6e600080516020612257833981519152826107e9565b50565b6108d6338383611094565b610a87600033610a04565b610aa35760405162461bcd60e51b815260040161045090611e30565b610a6e60008051602061225783398151915282610c00565b610ad360008051602061225783398151915233610a04565b610b1f5760405162461bcd60e51b815260206004820152601a60248201527f43616c6c6572206973206e6f7420746865206f70657261746f720000000000006044820152606401610450565b6001600160a01b038316610b8b5760405162461bcd60e51b815260206004820152602d60248201527f53656d694e4654426173653a2052656365697665722063616e206e6f7420626560448201526c207a65726f206164647265737360981b6064820152608401610450565b80610b9630846103e9565b1015610be45760405162461bcd60e51b815260206004820152601760248201527f53656d694e4654426173653a204f7574206f6620626f780000000000000000006044820152606401610450565b61080e3084848460405180602001604052806000815250611174565b600082815260036020526040902060010154610c1b81610f9d565b61080e838361102d565b6001600160a01b038516331480610c415750610c418533610389565b610c5d5760405162461bcd60e51b815260040161045090611ef9565b6107e28585858585611174565b60006001600160e01b03198216637965db0b60e01b148061047c575061047c826112ac565b6001600160a01b038416610cef5760405162461bcd60e51b815260206004820152602160248201527f455243313135353a206d696e7420746f20746865207a65726f206164647265736044820152607360f81b6064820152608401610450565b336000610cfb856112d1565b90506000610d08856112d1565b9050610d198360008985858961131c565b6000868152602081815260408083206001600160a01b038b16845290915281208054879290610d49908490611e93565b909155505060408051878152602081018790526001600160a01b03808a1692600092918716917fc3d58168c5ae7397731d063d5bbf3d657854427343f4c083240f7aacaa2d0f62910160405180910390a4610da98360008989898961138c565b50505050505050565b8151835114610e145760405162461bcd60e51b815260206004820152602860248201527f455243313135353a2069647320616e6420616d6f756e7473206c656e677468206044820152670dad2e6dac2e8c6d60c31b6064820152608401610450565b6001600160a01b038416610e3a5760405162461bcd60e51b815260040161045090611f48565b33610e4981878787878761131c565b60005b8451811015610f2f576000858281518110610e6957610e69611e67565b602002602001015190506000858381518110610e8757610e87611e67565b602090810291909101810151600084815280835260408082206001600160a01b038e168352909352919091205490915081811015610ed75760405162461bcd60e51b815260040161045090611f8d565b6000838152602081815260408083206001600160a01b038e8116855292528083208585039055908b16825281208054849290610f14908490611e93565b9250508190555050505080610f2890611ea6565b9050610e4c565b50846001600160a01b0316866001600160a01b0316826001600160a01b03167f4a39dc06d4c0dbc64b70af90fd698a233a518aa5d07e595d983b8c0526c8f7fb8787604051610f7f929190611fd7565b60405180910390a4610f958187878787876114e7565b505050505050565b610a6e81336115a2565b610fb18282610a04565b6108d65760008281526003602090815260408083206001600160a01b03851684529091529020805460ff19166001179055610fe93390565b6001600160a01b0316816001600160a01b0316837f2f8788117e7eff1d82e926ec794901d17c78024a50270940304540a733656f0d60405160405180910390a45050565b6110378282610a04565b156108d65760008281526003602090815260408083206001600160a01b0385168085529252808320805460ff1916905551339285917ff6391f5c32d9c69d2a47ea670b442974b53935d1edc7fd64eb21e047a839171b9190a45050565b816001600160a01b0316836001600160a01b0316036111075760405162461bcd60e51b815260206004820152602960248201527f455243313135353a2073657474696e6720617070726f76616c20737461747573604482015268103337b91039b2b63360b91b6064820152608401610450565b6001600160a01b03838116600081815260016020908152604080832094871680845294825291829020805460ff191686151590811790915591519182527f17307eab39ab6107e8899845ad3d59bd9653f200f220920489ca2b5937696c31910160405180910390a3505050565b6001600160a01b03841661119a5760405162461bcd60e51b815260040161045090611f48565b3360006111a6856112d1565b905060006111b3856112d1565b90506111c383898985858961131c565b6000868152602081815260408083206001600160a01b038c168452909152902054858110156112045760405162461bcd60e51b815260040161045090611f8d565b6000878152602081815260408083206001600160a01b038d8116855292528083208985039055908a16825281208054889290611241908490611e93565b909155505060408051888152602081018890526001600160a01b03808b16928c821692918816917fc3d58168c5ae7397731d063d5bbf3d657854427343f4c083240f7aacaa2d0f62910160405180910390a46112a1848a8a8a8a8a61138c565b505050505050505050565b60006001600160e01b03198216630271189760e51b148061047c575061047c82611606565b6040805160018082528183019092526060916000919060208083019080368337019050509050828160008151811061130b5761130b611e67565b602090810291909101015292915050565b6005546040516307500dc560e41b81523060048201526001600160a01b038781166024830152868116604483015290911690637500dc509060640160006040518083038186803b15801561136f57600080fd5b505afa158015611383573d6000803e3d6000fd5b50505050610f95565b6001600160a01b0384163b15610f955760405163f23a6e6160e01b81526001600160a01b0385169063f23a6e61906113d09089908990889088908890600401612005565b6020604051808303816000875af192505050801561140b575060408051601f3d908101601f191682019092526114089181019061204a565b60015b6114b757611417612067565b806308c379a003611450575061142b612083565b806114365750611452565b8060405162461bcd60e51b815260040161045091906119bc565b505b60405162461bcd60e51b815260206004820152603460248201527f455243313135353a207472616e7366657220746f206e6f6e20455243313135356044820152732932b1b2b4bb32b91034b6b83632b6b2b73a32b960611b6064820152608401610450565b6001600160e01b0319811663f23a6e6160e01b14610da95760405162461bcd60e51b81526004016104509061210d565b6001600160a01b0384163b15610f955760405163bc197c8160e01b81526001600160a01b0385169063bc197c819061152b9089908990889088908890600401612155565b6020604051808303816000875af1925050508015611566575060408051601f3d908101601f191682019092526115639181019061204a565b60015b61157257611417612067565b6001600160e01b0319811663bc197c8160e01b14610da95760405162461bcd60e51b81526004016104509061210d565b6115ac8282610a04565b6108d6576115c4816001600160a01b03166014611656565b6115cf836020611656565b6040516020016115e09291906121b3565b60408051601f198184030181529082905262461bcd60e51b8252610450916004016119bc565b60006001600160e01b03198216636cdb3d1360e11b148061163757506001600160e01b031982166303a24d0760e21b145b8061047c57506301ffc9a760e01b6001600160e01b031983161461047c565b60606000611665836002612228565b611670906002611e93565b67ffffffffffffffff811115611688576116886119cf565b6040519080825280601f01601f1916602001820160405280156116b2576020820181803683370190505b509050600360fc1b816000815181106116cd576116cd611e67565b60200101906001600160f81b031916908160001a905350600f60fb1b816001815181106116fc576116fc611e67565b60200101906001600160f81b031916908160001a9053506000611720846002612228565b61172b906001611e93565b90505b60018111156117a3576f181899199a1a9b1b9c1cb0b131b232b360811b85600f166010811061175f5761175f611e67565b1a60f81b82828151811061177557611775611e67565b60200101906001600160f81b031916908160001a90535060049490941c9361179c8161223f565b905061172e565b5083156117f25760405162461bcd60e51b815260206004820181905260248201527f537472696e67733a20686578206c656e67746820696e73756666696369656e746044820152606401610450565b9392505050565b6001600160a01b0381168114610a6e57600080fd5b6000806040838503121561182157600080fd5b823561182c816117f9565b946020939093013593505050565b6001600160e01b031981168114610a6e57600080fd5b60006020828403121561186257600080fd5b81356117f28161183a565b60008083601f84011261187f57600080fd5b50813567ffffffffffffffff81111561189757600080fd5b6020830191508360208260051b85010111156118b257600080fd5b9250929050565b600080600080600080606087890312156118d257600080fd5b863567ffffffffffffffff808211156118ea57600080fd5b6118f68a838b0161186d565b9098509650602089013591508082111561190f57600080fd5b61191b8a838b0161186d565b9096509450604089013591508082111561193457600080fd5b5061194189828a0161186d565b979a9699509497509295939492505050565b60006020828403121561196557600080fd5b5035919050565b60005b8381101561198757818101518382015260200161196f565b50506000910152565b600081518084526119a881602086016020860161196c565b601f01601f19169290920160200192915050565b6020815260006117f26020830184611990565b634e487b7160e01b600052604160045260246000fd5b601f8201601f1916810167ffffffffffffffff81118282101715611a0b57611a0b6119cf565b6040525050565b600067ffffffffffffffff821115611a2c57611a2c6119cf565b5060051b60200190565b600082601f830112611a4757600080fd5b81356020611a5482611a12565b604051611a6182826119e5565b83815260059390931b8501820192828101915086841115611a8157600080fd5b8286015b84811015611a9c5780358352918301918301611a85565b509695505050505050565b600082601f830112611ab857600080fd5b813567ffffffffffffffff811115611ad257611ad26119cf565b604051611ae9601f8301601f1916602001826119e5565b818152846020838601011115611afe57600080fd5b816020850160208301376000918101602001919091529392505050565b600080600080600060a08688031215611b3357600080fd5b8535611b3e816117f9565b94506020860135611b4e816117f9565b9350604086013567ffffffffffffffff80821115611b6b57600080fd5b611b7789838a01611a36565b94506060880135915080821115611b8d57600080fd5b611b9989838a01611a36565b93506080880135915080821115611baf57600080fd5b50611bbc88828901611aa7565b9150509295509295909350565b60008060408385031215611bdc57600080fd5b823591506020830135611bee816117f9565b809150509250929050565b600060208284031215611c0b57600080fd5b81356117f2816117f9565b60008060408385031215611c2957600080fd5b823567ffffffffffffffff80821115611c4157600080fd5b818501915085601f830112611c5557600080fd5b81356020611c6282611a12565b604051611c6f82826119e5565b83815260059390931b8501820192828101915089841115611c8f57600080fd5b948201945b83861015611cb6578535611ca7816117f9565b82529482019490820190611c94565b96505086013592505080821115611ccc57600080fd5b50611cd985828601611a36565b9150509250929050565b600081518084526020808501945080840160005b83811015611d1357815187529582019590820190600101611cf7565b509495945050505050565b6020815260006117f26020830184611ce3565b60008060408385031215611d4457600080fd5b8235611d4f816117f9565b915060208301358015158114611bee57600080fd5b600080600060608486031215611d7957600080fd5b8335611d84816117f9565b95602085013595506040909401359392505050565b60008060408385031215611dac57600080fd5b8235611db7816117f9565b91506020830135611bee816117f9565b600080600080600060a08688031215611ddf57600080fd5b8535611dea816117f9565b94506020860135611dfa816117f9565b93506040860135925060608601359150608086013567ffffffffffffffff811115611e2457600080fd5b611bbc88828901611aa7565b60208082526017908201527f43616c6c6572206973206e6f74207468652061646d696e000000000000000000604082015260600190565b634e487b7160e01b600052603260045260246000fd5b634e487b7160e01b600052601160045260246000fd5b8082018082111561047c5761047c611e7d565b600060018201611eb857611eb8611e7d565b5060010190565b600181811c90821680611ed357607f821691505b602082108103611ef357634e487b7160e01b600052602260045260246000fd5b50919050565b6020808252602f908201527f455243313135353a2063616c6c6572206973206e6f7420746f6b656e206f776e60408201526e195c881b9bdc88185c1c1c9bdd9959608a1b606082015260800190565b60208082526025908201527f455243313135353a207472616e7366657220746f20746865207a65726f206164604082015264647265737360d81b606082015260800190565b6020808252602a908201527f455243313135353a20696e73756666696369656e742062616c616e636520666f60408201526939103a3930b739b332b960b11b606082015260800190565b604081526000611fea6040830185611ce3565b8281036020840152611ffc8185611ce3565b95945050505050565b6001600160a01b03868116825285166020820152604081018490526060810183905260a06080820181905260009061203f90830184611990565b979650505050505050565b60006020828403121561205c57600080fd5b81516117f28161183a565b600060033d11156120805760046000803e5060005160e01c5b90565b600060443d10156120915790565b6040516003193d81016004833e81513d67ffffffffffffffff81602484011181841117156120c157505050505090565b82850191508151818111156120d95750505050505090565b843d87010160208285010111156120f35750505050505090565b612102602082860101876119e5565b509095945050505050565b60208082526028908201527f455243313135353a204552433131353552656365697665722072656a656374656040820152676420746f6b656e7360c01b606082015260800190565b6001600160a01b0386811682528516602082015260a06040820181905260009061218190830186611ce3565b82810360608401526121938186611ce3565b905082810360808401526121a78185611990565b98975050505050505050565b7f416363657373436f6e74726f6c3a206163636f756e74200000000000000000008152600083516121eb81601785016020880161196c565b7001034b99036b4b9b9b4b733903937b6329607d1b601791840191820152835161221c81602884016020880161196c565b01602801949350505050565b808202811582820484141761047c5761047c611e7d565b60008161224e5761224e611e7d565b50600019019056fe523a704056dcd17bcf83bed8b68c59416dac1119be77755efe3bde0a64e46e0ca2646970667358221220a389d04d9e496ac4c3a83414666b610fc76703a488a4dd048e322cdad7a02e1f64736f6c63430008110033",
    "linkReferences": {},
    "deployedLinkReferences": {}
}