{
  "_format": "hh-sol-artifact-1",
  "contractName": "Card",
  "sourceName": "contracts/NFTs/Card.sol",
  "abi": [
    {
      "inputs": [
        {
          "internalType": "string",
          "name": "name",
          "type": "string"
        },
        {
          "internalType": "string",
          "name": "symbol",
          "type": "string"
        }
      ],
      "stateMutability": "nonpayable",
      "type": "constructor"
    },
    {
      "anonymous": false,
      "inputs": [
        {
          "indexed": true,
          "internalType": "address",
          "name": "owner",
          "type": "address"
        },
        {
          "indexed": true,
          "internalType": "address",
          "name": "approved",
          "type": "address"
        },
        {
          "indexed": true,
          "internalType": "uint256",
          "name": "tokenId",
          "type": "uint256"
        }
      ],
      "name": "Approval",
      "type": "event"
    },
    {
      "anonymous": false,
      "inputs": [
        {
          "indexed": true,
          "internalType": "address",
          "name": "owner",
          "type": "address"
        },
        {
          "indexed": true,
          "internalType": "address",
          "name": "operator",
          "type": "address"
        },
        {
          "indexed": false,
          "internalType": "bool",
          "name": "approved",
          "type": "bool"
        }
      ],
      "name": "ApprovalForAll",
      "type": "event"
    },
    {
      "anonymous": false,
      "inputs": [
        {
          "indexed": false,
          "internalType": "string",
          "name": "tokenBaseURI",
          "type": "string"
        },
        {
          "indexed": false,
          "internalType": "uint256",
          "name": "timestamp",
          "type": "uint256"
        }
      ],
      "name": "BaseUriChanged",
      "type": "event"
    },
    {
      "anonymous": false,
      "inputs": [
        {
          "indexed": true,
          "internalType": "address",
          "name": "user",
          "type": "address"
        },
        {
          "indexed": false,
          "internalType": "uint256",
          "name": "nftId",
          "type": "uint256"
        },
        {
          "indexed": false,
          "internalType": "string",
          "name": "rarity",
          "type": "string"
        },
        {
          "indexed": false,
          "internalType": "string",
          "name": "cardType",
          "type": "string"
        },
        {
          "indexed": false,
          "internalType": "string",
          "name": "metadataId",
          "type": "string"
        },
        {
          "indexed": false,
          "internalType": "uint256",
          "name": "timestamp",
          "type": "uint256"
        }
      ],
      "name": "MintCard",
      "type": "event"
    },
    {
      "anonymous": false,
      "inputs": [
        {
          "indexed": true,
          "internalType": "bytes32",
          "name": "role",
          "type": "bytes32"
        },
        {
          "indexed": true,
          "internalType": "bytes32",
          "name": "previousAdminRole",
          "type": "bytes32"
        },
        {
          "indexed": true,
          "internalType": "bytes32",
          "name": "newAdminRole",
          "type": "bytes32"
        }
      ],
      "name": "RoleAdminChanged",
      "type": "event"
    },
    {
      "anonymous": false,
      "inputs": [
        {
          "indexed": true,
          "internalType": "bytes32",
          "name": "role",
          "type": "bytes32"
        },
        {
          "indexed": true,
          "internalType": "address",
          "name": "account",
          "type": "address"
        },
        {
          "indexed": true,
          "internalType": "address",
          "name": "sender",
          "type": "address"
        }
      ],
      "name": "RoleGranted",
      "type": "event"
    },
    {
      "anonymous": false,
      "inputs": [
        {
          "indexed": true,
          "internalType": "bytes32",
          "name": "role",
          "type": "bytes32"
        },
        {
          "indexed": true,
          "internalType": "address",
          "name": "account",
          "type": "address"
        },
        {
          "indexed": true,
          "internalType": "address",
          "name": "sender",
          "type": "address"
        }
      ],
      "name": "RoleRevoked",
      "type": "event"
    },
    {
      "anonymous": false,
      "inputs": [
        {
          "indexed": true,
          "internalType": "address",
          "name": "from",
          "type": "address"
        },
        {
          "indexed": true,
          "internalType": "address",
          "name": "to",
          "type": "address"
        },
        {
          "indexed": true,
          "internalType": "uint256",
          "name": "tokenId",
          "type": "uint256"
        }
      ],
      "name": "Transfer",
      "type": "event"
    },
    {
      "inputs": [],
      "name": "DEFAULT_ADMIN_ROLE",
      "outputs": [
        {
          "internalType": "bytes32",
          "name": "",
          "type": "bytes32"
        }
      ],
      "stateMutability": "view",
      "type": "function"
    },
    {
      "inputs": [],
      "name": "OPERATOR",
      "outputs": [
        {
          "internalType": "bytes32",
          "name": "",
          "type": "bytes32"
        }
      ],
      "stateMutability": "view",
      "type": "function"
    },
    {
      "inputs": [
        {
          "internalType": "address",
          "name": "operator",
          "type": "address"
        }
      ],
      "name": "addOperator",
      "outputs": [],
      "stateMutability": "nonpayable",
      "type": "function"
    },
    {
      "inputs": [
        {
          "internalType": "address",
          "name": "to",
          "type": "address"
        },
        {
          "internalType": "uint256",
          "name": "tokenId",
          "type": "uint256"
        }
      ],
      "name": "approve",
      "outputs": [],
      "stateMutability": "nonpayable",
      "type": "function"
    },
    {
      "inputs": [
        {
          "internalType": "address",
          "name": "owner",
          "type": "address"
        }
      ],
      "name": "balanceOf",
      "outputs": [
        {
          "internalType": "uint256",
          "name": "",
          "type": "uint256"
        }
      ],
      "stateMutability": "view",
      "type": "function"
    },
    {
      "inputs": [
        {
          "internalType": "uint256",
          "name": "tokenId",
          "type": "uint256"
        }
      ],
      "name": "getApproved",
      "outputs": [
        {
          "internalType": "address",
          "name": "",
          "type": "address"
        }
      ],
      "stateMutability": "view",
      "type": "function"
    },
    {
      "inputs": [],
      "name": "getItemClass",
      "outputs": [
        {
          "internalType": "string",
          "name": "",
          "type": "string"
        }
      ],
      "stateMutability": "view",
      "type": "function"
    },
    {
      "inputs": [
        {
          "internalType": "bytes32",
          "name": "role",
          "type": "bytes32"
        }
      ],
      "name": "getRoleAdmin",
      "outputs": [
        {
          "internalType": "bytes32",
          "name": "",
          "type": "bytes32"
        }
      ],
      "stateMutability": "view",
      "type": "function"
    },
    {
      "inputs": [
        {
          "internalType": "bytes32",
          "name": "role",
          "type": "bytes32"
        },
        {
          "internalType": "address",
          "name": "account",
          "type": "address"
        }
      ],
      "name": "grantRole",
      "outputs": [],
      "stateMutability": "nonpayable",
      "type": "function"
    },
    {
      "inputs": [
        {
          "internalType": "bytes32",
          "name": "role",
          "type": "bytes32"
        },
        {
          "internalType": "address",
          "name": "account",
          "type": "address"
        }
      ],
      "name": "hasRole",
      "outputs": [
        {
          "internalType": "bool",
          "name": "",
          "type": "bool"
        }
      ],
      "stateMutability": "view",
      "type": "function"
    },
    {
      "inputs": [
        {
          "internalType": "address",
          "name": "owner",
          "type": "address"
        },
        {
          "internalType": "address",
          "name": "operator",
          "type": "address"
        }
      ],
      "name": "isApprovedForAll",
      "outputs": [
        {
          "internalType": "bool",
          "name": "",
          "type": "bool"
        }
      ],
      "stateMutability": "view",
      "type": "function"
    },
    {
      "inputs": [
        {
          "internalType": "uint256[]",
          "name": "tokenIds_",
          "type": "uint256[]"
        }
      ],
      "name": "metadataInfo",
      "outputs": [
        {
          "internalType": "uint256[]",
          "name": "",
          "type": "uint256[]"
        },
        {
          "internalType": "string[]",
          "name": "",
          "type": "string[]"
        },
        {
          "internalType": "string[]",
          "name": "",
          "type": "string[]"
        }
      ],
      "stateMutability": "view",
      "type": "function"
    },
    {
      "inputs": [
        {
          "internalType": "address[]",
          "name": "receivers",
          "type": "address[]"
        },
        {
          "internalType": "string[]",
          "name": "rarities",
          "type": "string[]"
        },
        {
          "internalType": "string[]",
          "name": "cardTypes",
          "type": "string[]"
        },
        {
          "internalType": "string[]",
          "name": "metadataIds",
          "type": "string[]"
        }
      ],
      "name": "mintManyToMany",
      "outputs": [
        {
          "internalType": "uint256[]",
          "name": "tokenIds",
          "type": "uint256[]"
        }
      ],
      "stateMutability": "nonpayable",
      "type": "function"
    },
    {
      "inputs": [
        {
          "internalType": "address",
          "name": "receiver",
          "type": "address"
        },
        {
          "internalType": "string[]",
          "name": "rarities",
          "type": "string[]"
        },
        {
          "internalType": "string[]",
          "name": "cardTypes",
          "type": "string[]"
        },
        {
          "internalType": "string[]",
          "name": "metadataIds",
          "type": "string[]"
        }
      ],
      "name": "mintManyToOne",
      "outputs": [
        {
          "internalType": "uint256[]",
          "name": "tokenIds",
          "type": "uint256[]"
        }
      ],
      "stateMutability": "nonpayable",
      "type": "function"
    },
    {
      "inputs": [
        {
          "internalType": "address",
          "name": "receiver",
          "type": "address"
        },
        {
          "internalType": "string",
          "name": "rarity",
          "type": "string"
        },
        {
          "internalType": "string",
          "name": "cardType",
          "type": "string"
        },
        {
          "internalType": "string",
          "name": "metadataId",
          "type": "string"
        }
      ],
      "name": "mintOneToOne",
      "outputs": [
        {
          "internalType": "uint256",
          "name": "tokenId",
          "type": "uint256"
        }
      ],
      "stateMutability": "nonpayable",
      "type": "function"
    },
    {
      "inputs": [],
      "name": "name",
      "outputs": [
        {
          "internalType": "string",
          "name": "",
          "type": "string"
        }
      ],
      "stateMutability": "view",
      "type": "function"
    },
    {
      "inputs": [
        {
          "internalType": "uint256",
          "name": "tokenId",
          "type": "uint256"
        }
      ],
      "name": "ownerOf",
      "outputs": [
        {
          "internalType": "address",
          "name": "",
          "type": "address"
        }
      ],
      "stateMutability": "view",
      "type": "function"
    },
    {
      "inputs": [
        {
          "internalType": "address",
          "name": "operator",
          "type": "address"
        }
      ],
      "name": "removeOperator",
      "outputs": [],
      "stateMutability": "nonpayable",
      "type": "function"
    },
    {
      "inputs": [
        {
          "internalType": "bytes32",
          "name": "role",
          "type": "bytes32"
        },
        {
          "internalType": "address",
          "name": "account",
          "type": "address"
        }
      ],
      "name": "renounceRole",
      "outputs": [],
      "stateMutability": "nonpayable",
      "type": "function"
    },
    {
      "inputs": [
        {
          "internalType": "bytes32",
          "name": "role",
          "type": "bytes32"
        },
        {
          "internalType": "address",
          "name": "account",
          "type": "address"
        }
      ],
      "name": "revokeRole",
      "outputs": [],
      "stateMutability": "nonpayable",
      "type": "function"
    },
    {
      "inputs": [
        {
          "internalType": "address",
          "name": "from",
          "type": "address"
        },
        {
          "internalType": "address",
          "name": "to",
          "type": "address"
        },
        {
          "internalType": "uint256",
          "name": "tokenId",
          "type": "uint256"
        }
      ],
      "name": "safeTransferFrom",
      "outputs": [],
      "stateMutability": "nonpayable",
      "type": "function"
    },
    {
      "inputs": [
        {
          "internalType": "address",
          "name": "from",
          "type": "address"
        },
        {
          "internalType": "address",
          "name": "to",
          "type": "address"
        },
        {
          "internalType": "uint256",
          "name": "tokenId",
          "type": "uint256"
        },
        {
          "internalType": "bytes",
          "name": "data",
          "type": "bytes"
        }
      ],
      "name": "safeTransferFrom",
      "outputs": [],
      "stateMutability": "nonpayable",
      "type": "function"
    },
    {
      "inputs": [
        {
          "internalType": "address",
          "name": "operator",
          "type": "address"
        },
        {
          "internalType": "bool",
          "name": "approved",
          "type": "bool"
        }
      ],
      "name": "setApprovalForAll",
      "outputs": [],
      "stateMutability": "nonpayable",
      "type": "function"
    },
    {
      "inputs": [
        {
          "internalType": "string",
          "name": "tokenBaseURI",
          "type": "string"
        }
      ],
      "name": "setBaseUri",
      "outputs": [],
      "stateMutability": "nonpayable",
      "type": "function"
    },
    {
      "inputs": [
        {
          "internalType": "string",
          "name": "itemClass",
          "type": "string"
        }
      ],
      "name": "setItemClass",
      "outputs": [],
      "stateMutability": "nonpayable",
      "type": "function"
    },
    {
      "inputs": [
        {
          "internalType": "bytes4",
          "name": "interfaceId",
          "type": "bytes4"
        }
      ],
      "name": "supportsInterface",
      "outputs": [
        {
          "internalType": "bool",
          "name": "",
          "type": "bool"
        }
      ],
      "stateMutability": "view",
      "type": "function"
    },
    {
      "inputs": [],
      "name": "symbol",
      "outputs": [
        {
          "internalType": "string",
          "name": "",
          "type": "string"
        }
      ],
      "stateMutability": "view",
      "type": "function"
    },
    {
      "inputs": [
        {
          "internalType": "uint256",
          "name": "index",
          "type": "uint256"
        }
      ],
      "name": "tokenByIndex",
      "outputs": [
        {
          "internalType": "uint256",
          "name": "",
          "type": "uint256"
        }
      ],
      "stateMutability": "view",
      "type": "function"
    },
    {
      "inputs": [
        {
          "internalType": "address",
          "name": "owner",
          "type": "address"
        },
        {
          "internalType": "uint256",
          "name": "index",
          "type": "uint256"
        }
      ],
      "name": "tokenOfOwnerByIndex",
      "outputs": [
        {
          "internalType": "uint256",
          "name": "",
          "type": "uint256"
        }
      ],
      "stateMutability": "view",
      "type": "function"
    },
    {
      "inputs": [
        {
          "internalType": "uint256",
          "name": "tokenId",
          "type": "uint256"
        }
      ],
      "name": "tokenURI",
      "outputs": [
        {
          "internalType": "string",
          "name": "",
          "type": "string"
        }
      ],
      "stateMutability": "view",
      "type": "function"
    },
    {
      "inputs": [
        {
          "internalType": "address",
          "name": "account",
          "type": "address"
        }
      ],
      "name": "tokensInfoOfUser",
      "outputs": [
        {
          "internalType": "uint256[]",
          "name": "",
          "type": "uint256[]"
        },
        {
          "internalType": "string[]",
          "name": "",
          "type": "string[]"
        },
        {
          "internalType": "string[]",
          "name": "",
          "type": "string[]"
        },
        {
          "internalType": "string[]",
          "name": "",
          "type": "string[]"
        }
      ],
      "stateMutability": "view",
      "type": "function"
    },
    {
      "inputs": [
        {
          "internalType": "address",
          "name": "account",
          "type": "address"
        }
      ],
      "name": "tokensOfUser",
      "outputs": [
        {
          "internalType": "uint256[]",
          "name": "",
          "type": "uint256[]"
        },
        {
          "internalType": "string[]",
          "name": "",
          "type": "string[]"
        },
        {
          "internalType": "string[]",
          "name": "",
          "type": "string[]"
        }
      ],
      "stateMutability": "view",
      "type": "function"
    },
    {
      "inputs": [],
      "name": "totalSupply",
      "outputs": [
        {
          "internalType": "uint256",
          "name": "",
          "type": "uint256"
        }
      ],
      "stateMutability": "view",
      "type": "function"
    },
    {
      "inputs": [
        {
          "internalType": "address",
          "name": "from",
          "type": "address"
        },
        {
          "internalType": "address",
          "name": "to",
          "type": "address"
        },
        {
          "internalType": "uint256",
          "name": "tokenId",
          "type": "uint256"
        }
      ],
      "name": "transferFrom",
      "outputs": [],
      "stateMutability": "nonpayable",
      "type": "function"
    }
  ],
  "bytecode": "0x60806040523480156200001157600080fd5b506040516200404f3803806200404f833981016040819052620000349162000218565b81818181600062000046838262000311565b50600162000055828262000311565b50506001600a55506200006a6000336200009f565b505060408051808201909152600481526310d85c9960e21b602082015260119062000096908262000311565b505050620003dd565b620000ab8282620000af565b5050565b6000828152600b602090815260408083206001600160a01b038516845290915290205460ff16620000ab576000828152600b602090815260408083206001600160a01b03851684529091529020805460ff191660011790556200010f3390565b6001600160a01b0316816001600160a01b0316837f2f8788117e7eff1d82e926ec794901d17c78024a50270940304540a733656f0d60405160405180910390a45050565b634e487b7160e01b600052604160045260246000fd5b600082601f8301126200017b57600080fd5b81516001600160401b038082111562000198576200019862000153565b604051601f8301601f19908116603f01168101908282118183101715620001c357620001c362000153565b81604052838152602092508683858801011115620001e057600080fd5b600091505b83821015620002045785820183015181830184015290820190620001e5565b600093810190920192909252949350505050565b600080604083850312156200022c57600080fd5b82516001600160401b03808211156200024457600080fd5b620002528683870162000169565b935060208501519150808211156200026957600080fd5b50620002788582860162000169565b9150509250929050565b600181811c908216806200029757607f821691505b602082108103620002b857634e487b7160e01b600052602260045260246000fd5b50919050565b601f8211156200030c57600081815260208120601f850160051c81016020861015620002e75750805b601f850160051c820191505b818110156200030857828155600101620002f3565b5050505b505050565b81516001600160401b038111156200032d576200032d62000153565b62000345816200033e845462000282565b84620002be565b602080601f8311600181146200037d5760008415620003645750858301515b600019600386901b1c1916600185901b17855562000308565b600085815260208120601f198616915b82811015620003ae578886015182559484019460019091019084016200038d565b5085821015620003cd5787850151600019600388901b60f8161c191681555b5050505050600190811b01905550565b613c6280620003ed6000396000f3fe608060405234801561001057600080fd5b50600436106102065760003560e01c806379e5fff71161011a578063a22cb465116100ad578063bdd120961161007c578063bdd120961461046f578063c87b56dd14610482578063d3fae84714610495578063d547741f146104b8578063e985e9c5146104cb57600080fd5b8063a22cb4651461042e578063ac8a584a14610441578063af82a92714610454578063b88d4fde1461045c57600080fd5b80639870d7fe116100e95780639870d7fe146103ed57806399dc196a14610400578063a0bcfc7f14610413578063a217fddf1461042657600080fd5b806379e5fff7146103aa57806391d14854146103bd57806395d89b41146103d0578063983d2737146103d857600080fd5b80632f745c591161019d57806361b551181161016c57806361b551181461032f5780636352211e1461035157806368ea517c1461036457806370a082311461038457806370cb7f741461039757600080fd5b80632f745c59146102e357806336568abe146102f657806342842e0e146103095780634f6ccce71461031c57600080fd5b806318160ddd116101d957806318160ddd1461028857806323b872dd1461029a578063248a9ca3146102ad5780632f2ff15d146102d057600080fd5b806301ffc9a71461020b57806306fdde0314610233578063081812fc14610248578063095ea7b314610273575b600080fd5b61021e610219366004612d82565b610507565b60405190151581526020015b60405180910390f35b61023b610518565b60405161022a9190612def565b61025b610256366004612e02565b6105aa565b6040516001600160a01b03909116815260200161022a565b610286610281366004612e37565b6105d1565b005b6008545b60405190815260200161022a565b6102866102a8366004612e61565b6106eb565b61028c6102bb366004612e02565b6000908152600b602052604090206001015490565b6102866102de366004612e9d565b61071c565b61028c6102f1366004612e37565b610741565b610286610304366004612e9d565b6107d7565b610286610317366004612e61565b610855565b61028c61032a366004612e02565b610870565b61034261033d366004612ec9565b610903565b60405161022a93929190612f74565b61025b61035f366004612e02565b610c86565b610377610372366004612ff8565b610ce6565b60405161022a91906130a2565b61028c610392366004612ec9565b610f8c565b6103776103a53660046130b5565b611012565b6103426103b83660046131be565b6112e0565b61021e6103cb366004612e9d565b611475565b61023b6114a0565b61028c600080516020613c0d83398151915281565b6102866103fb366004612ec9565b6114af565b61028661040e3660046132a4565b6114f1565b61028661042136600461333c565b611525565b61028c600081565b61028661043c366004613384565b6115e6565b61028661044f366004612ec9565b6115f1565b61023b611630565b61028661046a3660046133c0565b61163f565b61028c61047d36600461343b565b611677565b61023b610490366004612e02565b6117f7565b6104a86104a3366004612ec9565b61185e565b60405161022a94939291906134d2565b6102866104c6366004612e9d565b6119cb565b61021e6104d936600461352a565b6001600160a01b03918216600090815260056020908152604080832093909416825291909152205460ff1690565b6000610512826119f0565b92915050565b60606000805461052790613554565b80601f016020809104026020016040519081016040528092919081815260200182805461055390613554565b80156105a05780601f10610575576101008083540402835291602001916105a0565b820191906000526020600020905b81548152906001019060200180831161058357829003601f168201915b5050505050905090565b60006105b582611a15565b506000908152600460205260409020546001600160a01b031690565b60006105dc82610c86565b9050806001600160a01b0316836001600160a01b03160361064e5760405162461bcd60e51b815260206004820152602160248201527f4552433732313a20617070726f76616c20746f2063757272656e74206f776e656044820152603960f91b60648201526084015b60405180910390fd5b336001600160a01b038216148061066a575061066a81336104d9565b6106dc5760405162461bcd60e51b815260206004820152603e60248201527f4552433732313a20617070726f76652063616c6c6572206973206e6f7420746f60448201527f6b656e206f776e6572206e6f7220617070726f76656420666f7220616c6c00006064820152608401610645565b6106e68383611a74565b505050565b6106f53382611ae2565b6107115760405162461bcd60e51b81526004016106459061358e565b6106e6838383611b61565b6000828152600b602052604090206001015461073781611d08565b6106e68383611d12565b600061074c83610f8c565b82106107ae5760405162461bcd60e51b815260206004820152602b60248201527f455243373231456e756d657261626c653a206f776e657220696e646578206f7560448201526a74206f6620626f756e647360a81b6064820152608401610645565b506001600160a01b03919091166000908152600660209081526040808320938352929052205490565b6001600160a01b03811633146108475760405162461bcd60e51b815260206004820152602f60248201527f416363657373436f6e74726f6c3a2063616e206f6e6c792072656e6f756e636560448201526e103937b632b9903337b91039b2b63360891b6064820152608401610645565b6108518282611d98565b5050565b6106e68383836040518060200160405280600081525061163f565b600061087b60085490565b82106108de5760405162461bcd60e51b815260206004820152602c60248201527f455243373231456e756d657261626c653a20676c6f62616c20696e646578206f60448201526b7574206f6620626f756e647360a01b6064820152608401610645565b600882815481106108f1576108f16135dc565b90600052602060002001549050919050565b606080806001600160a01b03841661096e5760405162461bcd60e51b815260206004820152602860248201527f4e6674426173653a20416464726573732063616e206e6f74206265207a65726f604482015267206164647265737360c01b6064820152608401610645565b600061097985610f8c565b90506000816001600160401b0381111561099557610995613178565b6040519080825280602002602001820160405280156109be578160200160208202803683370190505b5090506000826001600160401b038111156109db576109db613178565b604051908082528060200260200182016040528015610a0e57816020015b60608152602001906001900390816109f95790505b5090506000836001600160401b03811115610a2b57610a2b613178565b604051908082528060200260200182016040528015610a5e57816020015b6060815260200190600190039081610a495790505b50905060005b610a6d89610f8c565b811015610c77576000610a808a83610741565b905060008111610ad25760405162461bcd60e51b815260206004820152601a60248201527f4e6674426173653a20546f6b656e2069642069732077726f6e670000000000006044820152606401610645565b80858381518110610ae557610ae56135dc565b602002602001018181525050600e60008281526020019081526020016000208054610b0f90613554565b80601f0160208091040260200160405190810160405280929190818152602001828054610b3b90613554565b8015610b885780601f10610b5d57610100808354040283529160200191610b88565b820191906000526020600020905b815481529060010190602001808311610b6b57829003601f168201915b5050505050848381518110610b9f57610b9f6135dc565b6020026020010181905250600f60008281526020019081526020016000208054610bc890613554565b80601f0160208091040260200160405190810160405280929190818152602001828054610bf490613554565b8015610c415780601f10610c1657610100808354040283529160200191610c41565b820191906000526020600020905b815481529060010190602001808311610c2457829003601f168201915b5050505050838381518110610c5857610c586135dc565b6020026020010181905250508080610c6f90613608565b915050610a64565b50919790965090945092505050565b6000818152600260205260408120546001600160a01b0316806105125760405162461bcd60e51b8152602060048201526018602482015277115490cdcc8c4e881a5b9d985b1a59081d1bdad95b88125160421b6044820152606401610645565b6060610d00600080516020613c0d83398151915233611475565b610d1c5760405162461bcd60e51b815260040161064590613621565b6002600a5403610d3e5760405162461bcd60e51b815260040161064590613658565b6002600a55610d508888888686611dff565b80519091508414610d735760405162461bcd60e51b81526004016106459061368f565b60005b8151811015610f7b57858582818110610d9157610d916135dc565b9050602002810190610da391906136d4565b8080601f016020809104026020016040519081016040528093929190818152602001838380828437600092019190915250506040516326e3893160e21b815273__$6a6c20af32701c6be91b0825b1b22b7f62$__93639b8e24c49350610e0d925090600401612def565b60006040518083038186803b158015610e2557600080fd5b505af4158015610e39573d6000803e3d6000fd5b50505050858582818110610e4f57610e4f6135dc565b9050602002810190610e6191906136d4565b60106000858581518110610e7757610e776135dc565b602002602001015181526020019081526020016000209182610e9a929190613768565b50886001600160a01b03167f4866c7b727d52af13a2e4c6d2c78e2a4a6eaaf70e4b4187b98d9fb00f7664ec8838381518110610ed857610ed86135dc565b60200260200101518a8a85818110610ef257610ef26135dc565b9050602002810190610f0491906136d4565b8a8a87818110610f1657610f166135dc565b9050602002810190610f2891906136d4565b8a8a89818110610f3a57610f3a6135dc565b9050602002810190610f4c91906136d4565b42604051610f61989796959493929190613851565b60405180910390a280610f7381613608565b915050610d76565b506001600a55979650505050505050565b60006001600160a01b038216610ff65760405162461bcd60e51b815260206004820152602960248201527f4552433732313a2061646472657373207a65726f206973206e6f7420612076616044820152683634b21037bbb732b960b91b6064820152608401610645565b506001600160a01b031660009081526003602052604090205490565b606061102c600080516020613c0d83398151915233611475565b6110485760405162461bcd60e51b815260040161064590613621565b6002600a540361106a5760405162461bcd60e51b815260040161064590613658565b6002600a5561107d898989898787611f32565b805190915084146110a05760405162461bcd60e51b81526004016106459061368f565b60005b81518110156112ce578585828181106110be576110be6135dc565b90506020028101906110d091906136d4565b8080601f016020809104026020016040519081016040528093929190818152602001838380828437600092019190915250506040516326e3893160e21b815273__$6a6c20af32701c6be91b0825b1b22b7f62$__93639b8e24c4935061113a925090600401612def565b60006040518083038186803b15801561115257600080fd5b505af4158015611166573d6000803e3d6000fd5b5050505085858281811061117c5761117c6135dc565b905060200281019061118e91906136d4565b601060008585815181106111a4576111a46135dc565b6020026020010151815260200190815260200160002091826111c7929190613768565b508989828181106111da576111da6135dc565b90506020020160208101906111ef9190612ec9565b6001600160a01b03167f4866c7b727d52af13a2e4c6d2c78e2a4a6eaaf70e4b4187b98d9fb00f7664ec883838151811061122b5761122b6135dc565b60200260200101518a8a85818110611245576112456135dc565b905060200281019061125791906136d4565b8a8a87818110611269576112696135dc565b905060200281019061127b91906136d4565b8a8a8981811061128d5761128d6135dc565b905060200281019061129f91906136d4565b426040516112b4989796959493929190613851565b60405180910390a2806112c681613608565b9150506110a3565b506001600a5598975050505050505050565b606080606060008451116113415760405162461bcd60e51b815260206004820152602260248201527f4e6674426173653a205468657265206973206e6f7420616e7920746f6b656e206044820152611a5960f21b6064820152608401610645565b600084516001600160401b0381111561135c5761135c613178565b60405190808252806020026020018201604052801561138f57816020015b606081526020019060019003908161137a5790505b509050600085516001600160401b038111156113ad576113ad613178565b6040519080825280602002602001820160405280156113e057816020015b60608152602001906001900390816113cb5790505b50905060005b865181101561146957600080611414898481518110611407576114076135dc565b602002602001015161201b565b915091508185848151811061142b5761142b6135dc565b602002602001018190525080848481518110611449576114496135dc565b60200260200101819052505050808061146190613608565b9150506113e6565b50949590949350915050565b6000918252600b602090815260408084206001600160a01b0393909316845291905290205460ff1690565b60606001805461052790613554565b6114ba600033611475565b6114d65760405162461bcd60e51b8152600401610645906138a9565b6114ee600080516020613c0d8339815191528261071c565b50565b6114fc600033611475565b6115185760405162461bcd60e51b8152600401610645906138a9565b60116106e6828483613768565b611530600033611475565b61154c5760405162461bcd60e51b8152600401610645906138a9565b600081511161159d5760405162461bcd60e51b815260206004820152601d60248201527f4e4654426173653a20426173652055524c2069732072657175697265640000006044820152606401610645565b600d6115a982826138e0565b507fba4ea9b017218b169ef731b5bb5bda8e6387067f5b170e29cffeccc9a56e5e9381426040516115db92919061399f565b60405180910390a150565b61085133838361229a565b6115fc600033611475565b6116185760405162461bcd60e51b8152600401610645906138a9565b6114ee600080516020613c0d833981519152826119cb565b60606011805461052790613554565b6116493383611ae2565b6116655760405162461bcd60e51b81526004016106459061358e565b61167184848484612368565b50505050565b6000611691600080516020613c0d83398151915233611475565b6116ad5760405162461bcd60e51b815260040161064590613621565b6002600a54036116cf5760405162461bcd60e51b815260040161064590613658565b6002600a55604080516020601f8701819004810282018101909252858152908690869081908401838280828437600092019190915250506040516326e3893160e21b815273__$6a6c20af32701c6be91b0825b1b22b7f62$__93639b8e24c4935061173e925090600401612def565b60006040518083038186803b15801561175657600080fd5b505af415801561176a573d6000803e3d6000fd5b5050505061177b888888868661239b565b6000818152601060205260409020909150611797858783613768565b50336001600160a01b03167f4866c7b727d52af13a2e4c6d2c78e2a4a6eaaf70e4b4187b98d9fb00f7664ec882898989898989426040516117df989796959493929190613851565b60405180910390a26001600a55979650505050505050565b606061180282611a15565b600061180c61241c565b9050600081511161182c5760405180602001604052806000815250611857565b806118368461242b565b6040516020016118479291906139c1565b6040516020818303038152906040525b9392505050565b606080606080600080600061187288610903565b925092509250600083516001600160401b0381111561189357611893613178565b6040519080825280602002602001820160405280156118c657816020015b60608152602001906001900390816118b15790505b50905060005b84518110156119ba57601060008683815181106118eb576118eb6135dc565b60200260200101518152602001908152602001600020805461190c90613554565b80601f016020809104026020016040519081016040528092919081815260200182805461193890613554565b80156119855780601f1061195a57610100808354040283529160200191611985565b820191906000526020600020905b81548152906001019060200180831161196857829003601f168201915b505050505082828151811061199c5761199c6135dc565b602002602001018190525080806119b290613608565b9150506118cc565b509298919750919550909350915050565b6000828152600b60205260409020600101546119e681611d08565b6106e68383611d98565b60006001600160e01b03198216637965db0b60e01b148061051257506105128261252b565b6000818152600260205260409020546001600160a01b03166114ee5760405162461bcd60e51b8152602060048201526018602482015277115490cdcc8c4e881a5b9d985b1a59081d1bdad95b88125160421b6044820152606401610645565b600081815260046020526040902080546001600160a01b0319166001600160a01b0384169081179091558190611aa982610c86565b6001600160a01b03167f8c5be1e5ebec7d5bd14f71427d1e84f3dd0314c0f7b2291e5b200ac8c7c3b92560405160405180910390a45050565b600080611aee83610c86565b9050806001600160a01b0316846001600160a01b03161480611b3557506001600160a01b0380821660009081526005602090815260408083209388168352929052205460ff165b80611b595750836001600160a01b0316611b4e846105aa565b6001600160a01b0316145b949350505050565b826001600160a01b0316611b7482610c86565b6001600160a01b031614611bd85760405162461bcd60e51b815260206004820152602560248201527f4552433732313a207472616e736665722066726f6d20696e636f72726563742060448201526437bbb732b960d91b6064820152608401610645565b6001600160a01b038216611c3a5760405162461bcd60e51b8152602060048201526024808201527f4552433732313a207472616e7366657220746f20746865207a65726f206164646044820152637265737360e01b6064820152608401610645565b611c45838383612550565b611c50600082611a74565b6001600160a01b0383166000908152600360205260408120805460019290611c799084906139f0565b90915550506001600160a01b0382166000908152600360205260408120805460019290611ca7908490613a03565b909155505060008181526002602052604080822080546001600160a01b0319166001600160a01b0386811691821790925591518493918716917fddf252ad1be2c89b69c2b068fc378daa952ba7f163c4a11628f55a4df523b3ef91a4505050565b6114ee8133612608565b611d1c8282611475565b610851576000828152600b602090815260408083206001600160a01b03851684529091529020805460ff19166001179055611d543390565b6001600160a01b0316816001600160a01b0316837f2f8788117e7eff1d82e926ec794901d17c78024a50270940304540a733656f0d60405160405180910390a45050565b611da28282611475565b15610851576000828152600b602090815260408083206001600160a01b0385168085529252808320805460ff1916905551339285917ff6391f5c32d9c69d2a47ea670b442974b53935d1edc7fd64eb21e047a839171b9190a45050565b6060611e19600080516020613c0d83398151915233611475565b611e355760405162461bcd60e51b815260040161064590613621565b838214611e545760405162461bcd60e51b815260040161064590613a16565b6000846001600160401b03811115611e6e57611e6e613178565b604051908082528060200260200182016040528015611e97578160200160208202803683370190505b50905060005b85811015611f2557611ef688888884818110611ebb57611ebb6135dc565b9050602002810190611ecd91906136d4565b888886818110611edf57611edf6135dc565b9050602002810190611ef191906136d4565b61239b565b828281518110611f0857611f086135dc565b602090810291909101015280611f1d81613608565b915050611e9d565b5090505b95945050505050565b6060838214611f535760405162461bcd60e51b815260040161064590613a16565b6000846001600160401b03811115611f6d57611f6d613178565b604051908082528060200260200182016040528015611f96578160200160208202803683370190505b50905060005b8581101561200f57611fe0898983818110611fb957611fb96135dc565b9050602002016020810190611fce9190612ec9565b888884818110611ebb57611ebb6135dc565b828281518110611ff257611ff26135dc565b60209081029190910101528061200781613608565b915050611f9c565b50979650505050505050565b6060806000831161207f5760405162461bcd60e51b815260206004820152602860248201527f4e6674426173653a20546f6b656e206964206d75737420626520677265617465604482015267072207468616e20360c41b6064820152608401610645565b6000838152600e60205260408120805461209890613554565b80601f01602080910402602001604051908101604052809291908181526020018280546120c490613554565b80156121115780601f106120e657610100808354040283529160200191612111565b820191906000526020600020905b8154815290600101906020018083116120f457829003601f168201915b5050604051631869a1d960e31b815293945073__$6a6c20af32701c6be91b0825b1b22b7f62$__9363c34d0ec893506121509250859150600401612def565b60006040518083038186803b15801561216857600080fd5b505af415801561217c573d6000803e3d6000fd5b5050506000858152600f6020526040812080549192509061219c90613554565b9050116121f75760405162461bcd60e51b815260206004820152602360248201527f4e6674426173653a204d657461646174614964206d75737420626520657869736044820152621d195960ea1b6064820152608401610645565b6000848152600f60205260408120805461221090613554565b80601f016020809104026020016040519081016040528092919081815260200182805461223c90613554565b80156122895780601f1061225e57610100808354040283529160200191612289565b820191906000526020600020905b81548152906001019060200180831161226c57829003601f168201915b509599939850929650505050505050565b816001600160a01b0316836001600160a01b0316036122fb5760405162461bcd60e51b815260206004820152601960248201527f4552433732313a20617070726f766520746f2063616c6c6572000000000000006044820152606401610645565b6001600160a01b03838116600081815260056020908152604080832094871680845294825291829020805460ff191686151590811790915591519182527f17307eab39ab6107e8899845ad3d59bd9653f200f220920489ca2b5937696c31910160405180910390a3505050565b612373848484611b61565b61237f8484848461266c565b6116715760405162461bcd60e51b815260040161064590613a73565b60006001600160a01b0386166124055760405162461bcd60e51b815260206004820152602960248201527f4e6674426173653a2052656365697665722063616e206e6f74206265207a65726044820152686f206164647265737360b81b6064820152608401610645565b612412868686868661276d565b9695505050505050565b6060600d805461052790613554565b6060816000036124525750506040805180820190915260018152600360fc1b602082015290565b8160005b811561247c578061246681613608565b91506124759050600a83613adb565b9150612456565b6000816001600160401b0381111561249657612496613178565b6040519080825280601f01601f1916602001820160405280156124c0576020820181803683370190505b5090505b8415611b59576124d56001836139f0565b91506124e2600a86613aef565b6124ed906030613a03565b60f81b818381518110612502576125026135dc565b60200101906001600160f81b031916908160001a905350612524600a86613adb565b94506124c4565b60006001600160e01b0319821663780e9d6360e01b148061051257506105128261285b565b6001600160a01b0383166125ab576125a681600880546000838152600960205260408120829055600182018355919091527ff3f7a9fe364faab93b216da50a3214154f22a0a2b415b23a84c8169e8b636ee30155565b6125ce565b816001600160a01b0316836001600160a01b0316146125ce576125ce83826128ab565b6001600160a01b0382166125e5576106e681612948565b826001600160a01b0316826001600160a01b0316146106e6576106e682826129f7565b6126128282611475565b6108515761262a816001600160a01b03166014612a3b565b612635836020612a3b565b604051602001612646929190613b03565b60408051601f198184030181529082905262461bcd60e51b825261064591600401612def565b60006001600160a01b0384163b1561276257604051630a85bd0160e11b81526001600160a01b0385169063150b7a02906126b0903390899088908890600401613b78565b6020604051808303816000875af19250505080156126eb575060408051601f3d908101601f191682019092526126e891810190613bab565b60015b612748573d808015612719576040519150601f19603f3d011682016040523d82523d6000602084013e61271e565b606091505b5080516000036127405760405162461bcd60e51b815260040161064590613a73565b805181602001fd5b6001600160e01b031916630a85bd0160e11b149050611b59565b506001949350505050565b600084848080601f01602080910402602001604051908101604052809392919081815260200183838082843760009201919091525050604051631869a1d960e31b815273__$6a6c20af32701c6be91b0825b1b22b7f62$__9363c34d0ec893506127db925090600401612def565b60006040518083038186803b1580156127f357600080fd5b505af4158015612807573d6000803e3d6000fd5b50505050612819600c80546001019055565b50600c546000818152600e60205260409020612836858783613768565b506000818152600f60205260409020612850838583613768565b50611f298682612bd6565b60006001600160e01b031982166380ac58cd60e01b148061288c57506001600160e01b03198216635b5e139f60e01b145b8061051257506301ffc9a760e01b6001600160e01b0319831614610512565b600060016128b884610f8c565b6128c291906139f0565b600083815260076020526040902054909150808214612915576001600160a01b03841660009081526006602090815260408083208584528252808320548484528184208190558352600790915290208190555b5060009182526007602090815260408084208490556001600160a01b039094168352600681528383209183525290812055565b60085460009061295a906001906139f0565b60008381526009602052604081205460088054939450909284908110612982576129826135dc565b9060005260206000200154905080600883815481106129a3576129a36135dc565b60009182526020808320909101929092558281526009909152604080822084905585825281205560088054806129db576129db613bc8565b6001900381819060005260206000200160009055905550505050565b6000612a0283610f8c565b6001600160a01b039093166000908152600660209081526040808320868452825280832085905593825260079052919091209190915550565b60606000612a4a836002613bde565b612a55906002613a03565b6001600160401b03811115612a6c57612a6c613178565b6040519080825280601f01601f191660200182016040528015612a96576020820181803683370190505b509050600360fc1b81600081518110612ab157612ab16135dc565b60200101906001600160f81b031916908160001a905350600f60fb1b81600181518110612ae057612ae06135dc565b60200101906001600160f81b031916908160001a9053506000612b04846002613bde565b612b0f906001613a03565b90505b6001811115612b87576f181899199a1a9b1b9c1cb0b131b232b360811b85600f1660108110612b4357612b436135dc565b1a60f81b828281518110612b5957612b596135dc565b60200101906001600160f81b031916908160001a90535060049490941c93612b8081613bf5565b9050612b12565b5083156118575760405162461bcd60e51b815260206004820181905260248201527f537472696e67733a20686578206c656e67746820696e73756666696369656e746044820152606401610645565b610851828260405180602001604052806000815250612bf58383612c1e565b612c02600084848461266c565b6106e65760405162461bcd60e51b815260040161064590613a73565b6001600160a01b038216612c745760405162461bcd60e51b815260206004820181905260248201527f4552433732313a206d696e7420746f20746865207a65726f20616464726573736044820152606401610645565b6000818152600260205260409020546001600160a01b031615612cd95760405162461bcd60e51b815260206004820152601c60248201527f4552433732313a20746f6b656e20616c7265616479206d696e746564000000006044820152606401610645565b612ce560008383612550565b6001600160a01b0382166000908152600360205260408120805460019290612d0e908490613a03565b909155505060008181526002602052604080822080546001600160a01b0319166001600160a01b03861690811790915590518392907fddf252ad1be2c89b69c2b068fc378daa952ba7f163c4a11628f55a4df523b3ef908290a45050565b6001600160e01b0319811681146114ee57600080fd5b600060208284031215612d9457600080fd5b813561185781612d6c565b60005b83811015612dba578181015183820152602001612da2565b50506000910152565b60008151808452612ddb816020860160208601612d9f565b601f01601f19169290920160200192915050565b6020815260006118576020830184612dc3565b600060208284031215612e1457600080fd5b5035919050565b80356001600160a01b0381168114612e3257600080fd5b919050565b60008060408385031215612e4a57600080fd5b612e5383612e1b565b946020939093013593505050565b600080600060608486031215612e7657600080fd5b612e7f84612e1b565b9250612e8d60208501612e1b565b9150604084013590509250925092565b60008060408385031215612eb057600080fd5b82359150612ec060208401612e1b565b90509250929050565b600060208284031215612edb57600080fd5b61185782612e1b565b600081518084526020808501945080840160005b83811015612f1457815187529582019590820190600101612ef8565b509495945050505050565b600081518084526020808501808196508360051b8101915082860160005b85811015612f67578284038952612f55848351612dc3565b98850198935090840190600101612f3d565b5091979650505050505050565b606081526000612f876060830186612ee4565b8281036020840152612f998186612f1f565b905082810360408401526124128185612f1f565b60008083601f840112612fbf57600080fd5b5081356001600160401b03811115612fd657600080fd5b6020830191508360208260051b8501011115612ff157600080fd5b9250929050565b60008060008060008060006080888a03121561301357600080fd5b61301c88612e1b565b965060208801356001600160401b038082111561303857600080fd5b6130448b838c01612fad565b909850965060408a013591508082111561305d57600080fd5b6130698b838c01612fad565b909650945060608a013591508082111561308257600080fd5b5061308f8a828b01612fad565b989b979a50959850939692959293505050565b6020815260006118576020830184612ee4565b6000806000806000806000806080898b0312156130d157600080fd5b88356001600160401b03808211156130e857600080fd5b6130f48c838d01612fad565b909a50985060208b013591508082111561310d57600080fd5b6131198c838d01612fad565b909850965060408b013591508082111561313257600080fd5b61313e8c838d01612fad565b909650945060608b013591508082111561315757600080fd5b506131648b828c01612fad565b999c989b5096995094979396929594505050565b634e487b7160e01b600052604160045260246000fd5b604051601f8201601f191681016001600160401b03811182821017156131b6576131b6613178565b604052919050565b600060208083850312156131d157600080fd5b82356001600160401b03808211156131e857600080fd5b818501915085601f8301126131fc57600080fd5b81358181111561320e5761320e613178565b8060051b915061321f84830161318e565b818152918301840191848101908884111561323957600080fd5b938501935b838510156132575784358252938501939085019061323e565b98975050505050505050565b60008083601f84011261327557600080fd5b5081356001600160401b0381111561328c57600080fd5b602083019150836020828501011115612ff157600080fd5b600080602083850312156132b757600080fd5b82356001600160401b038111156132cd57600080fd5b6132d985828601613263565b90969095509350505050565b60006001600160401b038311156132fe576132fe613178565b613311601f8401601f191660200161318e565b905082815283838301111561332557600080fd5b828260208301376000602084830101529392505050565b60006020828403121561334e57600080fd5b81356001600160401b0381111561336457600080fd5b8201601f8101841361337557600080fd5b611b59848235602084016132e5565b6000806040838503121561339757600080fd5b6133a083612e1b565b9150602083013580151581146133b557600080fd5b809150509250929050565b600080600080608085870312156133d657600080fd5b6133df85612e1b565b93506133ed60208601612e1b565b92506040850135915060608501356001600160401b0381111561340f57600080fd5b8501601f8101871361342057600080fd5b61342f878235602084016132e5565b91505092959194509250565b60008060008060008060006080888a03121561345657600080fd5b61345f88612e1b565b965060208801356001600160401b038082111561347b57600080fd5b6134878b838c01613263565b909850965060408a01359150808211156134a057600080fd5b6134ac8b838c01613263565b909650945060608a01359150808211156134c557600080fd5b5061308f8a828b01613263565b6080815260006134e56080830187612ee4565b82810360208401526134f78187612f1f565b9050828103604084015261350b8186612f1f565b9050828103606084015261351f8185612f1f565b979650505050505050565b6000806040838503121561353d57600080fd5b61354683612e1b565b9150612ec060208401612e1b565b600181811c9082168061356857607f821691505b60208210810361358857634e487b7160e01b600052602260045260246000fd5b50919050565b6020808252602e908201527f4552433732313a2063616c6c6572206973206e6f7420746f6b656e206f776e6560408201526d1c881b9bdc88185c1c1c9bdd995960921b606082015260800190565b634e487b7160e01b600052603260045260246000fd5b634e487b7160e01b600052601160045260246000fd5b60006001820161361a5761361a6135f2565b5060010190565b6020808252601a908201527f43616c6c6572206973206e6f7420746865206f70657261746f72000000000000604082015260600190565b6020808252601f908201527f5265656e7472616e637947756172643a207265656e7472616e742063616c6c00604082015260600190565b60208082526025908201527f436172643a2054686520636172645479706573206c656e67746820697320696e6040820152641d985b1a5960da1b606082015260800190565b6000808335601e198436030181126136eb57600080fd5b8301803591506001600160401b0382111561370557600080fd5b602001915036819003821315612ff157600080fd5b601f8211156106e657600081815260208120601f850160051c810160208610156137415750805b601f850160051c820191505b818110156137605782815560010161374d565b505050505050565b6001600160401b0383111561377f5761377f613178565b6137938361378d8354613554565b8361371a565b6000601f8411600181146137c757600085156137af5750838201355b600019600387901b1c1916600186901b178355613821565b600083815260209020601f19861690835b828110156137f857868501358255602094850194600190920191016137d8565b50868210156138155760001960f88860031b161c19848701351681555b505060018560011b0183555b5050505050565b81835281816020850137506000828201602090810191909152601f909101601f19169091010190565b88815260a06020820152600061386b60a08301898b613828565b828103604084015261387e81888a613828565b90508281036060840152613893818688613828565b9150508260808301529998505050505050505050565b60208082526017908201527f43616c6c6572206973206e6f74207468652061646d696e000000000000000000604082015260600190565b81516001600160401b038111156138f9576138f9613178565b61390d816139078454613554565b8461371a565b602080601f831160018114613942576000841561392a5750858301515b600019600386901b1c1916600185901b178555613760565b600085815260208120601f198616915b8281101561397157888601518255948401946001909101908401613952565b508582101561398f5787850151600019600388901b60f8161c191681555b5050505050600190811b01905550565b6040815260006139b26040830185612dc3565b90508260208301529392505050565b600083516139d3818460208801612d9f565b8351908301906139e7818360208801612d9f565b01949350505050565b81810381811115610512576105126135f2565b80820180821115610512576105126135f2565b60208082526038908201527f4e6674426173653a205261726974696573206c656e677468206d75737420657160408201527f75616c20746f206d65746164617461496473206c656e74680000000000000000606082015260800190565b60208082526032908201527f4552433732313a207472616e7366657220746f206e6f6e20455243373231526560408201527131b2b4bb32b91034b6b83632b6b2b73a32b960711b606082015260800190565b634e487b7160e01b600052601260045260246000fd5b600082613aea57613aea613ac5565b500490565b600082613afe57613afe613ac5565b500690565b7f416363657373436f6e74726f6c3a206163636f756e7420000000000000000000815260008351613b3b816017850160208801612d9f565b7001034b99036b4b9b9b4b733903937b6329607d1b6017918401918201528351613b6c816028840160208801612d9f565b01602801949350505050565b6001600160a01b038581168252841660208201526040810183905260806060820181905260009061241290830184612dc3565b600060208284031215613bbd57600080fd5b815161185781612d6c565b634e487b7160e01b600052603160045260246000fd5b8082028115828204841417610512576105126135f2565b600081613c0457613c046135f2565b50600019019056fe523a704056dcd17bcf83bed8b68c59416dac1119be77755efe3bde0a64e46e0ca26469706673582212205660378f9be57140e1f99a7e54b1818d5e5e3b2872602cc49e7defca1f3a497164736f6c63430008110033",
  "linkReferences": {
    "contracts/libs/IndexString.sol": {
      "IndexString": [
        {
          "length": 20,
          "start": 4561
        },
        {
          "length": 20,
          "start": 5374
        },
        {
          "length": 20,
          "start": 6914
        },
        {
          "length": 20,
          "start": 9490
        },
        {
          "length": 20,
          "start": 11167
        }
      ]
    }
  },
  "deployedLinkReferences": {
    "contracts/libs/IndexString.sol": {
      "IndexString": [
        {
          "length": 20,
          "start": 3556
        },
        {
          "length": 20,
          "start": 4369
        },
        {
          "length": 20,
          "start": 5909
        },
        {
          "length": 20,
          "start": 8485
        },
        {
          "length": 20,
          "start": 10162
        }
      ]
    }
  }
}