{
  "_format": "hh-sol-artifact-1",
  "contractName": "MintCard",
  "sourceName": "contracts/openBox/MintCard.sol",
  "abi": [
    {
      "inputs": [
        {
          "internalType": "contract ICard",
          "name": "_cardContract",
          "type": "address"
        },
        {
          "internalType": "address",
          "name": "_verifier",
          "type": "address"
        }
      ],
      "stateMutability": "nonpayable",
      "type": "constructor"
    },
    {
      "anonymous": false,
      "inputs": [
        {
          "indexed": true,
          "internalType": "bytes32",
          "name": "role",
          "type": "bytes32"
        },
        {
          "indexed": true,
          "internalType": "bytes32",
          "name": "previousAdminRole",
          "type": "bytes32"
        },
        {
          "indexed": true,
          "internalType": "bytes32",
          "name": "newAdminRole",
          "type": "bytes32"
        }
      ],
      "name": "RoleAdminChanged",
      "type": "event"
    },
    {
      "anonymous": false,
      "inputs": [
        {
          "indexed": true,
          "internalType": "bytes32",
          "name": "role",
          "type": "bytes32"
        },
        {
          "indexed": true,
          "internalType": "address",
          "name": "account",
          "type": "address"
        },
        {
          "indexed": true,
          "internalType": "address",
          "name": "sender",
          "type": "address"
        }
      ],
      "name": "RoleGranted",
      "type": "event"
    },
    {
      "anonymous": false,
      "inputs": [
        {
          "indexed": true,
          "internalType": "bytes32",
          "name": "role",
          "type": "bytes32"
        },
        {
          "indexed": true,
          "internalType": "address",
          "name": "account",
          "type": "address"
        },
        {
          "indexed": true,
          "internalType": "address",
          "name": "sender",
          "type": "address"
        }
      ],
      "name": "RoleRevoked",
      "type": "event"
    },
    {
      "inputs": [],
      "name": "DEFAULT_ADMIN_ROLE",
      "outputs": [
        {
          "internalType": "bytes32",
          "name": "",
          "type": "bytes32"
        }
      ],
      "stateMutability": "view",
      "type": "function"
    },
    {
      "inputs": [],
      "name": "OPERATOR",
      "outputs": [
        {
          "internalType": "bytes32",
          "name": "",
          "type": "bytes32"
        }
      ],
      "stateMutability": "view",
      "type": "function"
    },
    {
      "inputs": [
        {
          "internalType": "address",
          "name": "operator",
          "type": "address"
        }
      ],
      "name": "addOperator",
      "outputs": [],
      "stateMutability": "nonpayable",
      "type": "function"
    },
    {
      "inputs": [],
      "name": "cardContract",
      "outputs": [
        {
          "internalType": "contract ICard",
          "name": "",
          "type": "address"
        }
      ],
      "stateMutability": "view",
      "type": "function"
    },
    {
      "inputs": [
        {
          "internalType": "bytes32",
          "name": "role",
          "type": "bytes32"
        }
      ],
      "name": "getRoleAdmin",
      "outputs": [
        {
          "internalType": "bytes32",
          "name": "",
          "type": "bytes32"
        }
      ],
      "stateMutability": "view",
      "type": "function"
    },
    {
      "inputs": [
        {
          "internalType": "bytes32",
          "name": "role",
          "type": "bytes32"
        },
        {
          "internalType": "address",
          "name": "account",
          "type": "address"
        }
      ],
      "name": "grantRole",
      "outputs": [],
      "stateMutability": "nonpayable",
      "type": "function"
    },
    {
      "inputs": [
        {
          "internalType": "bytes32",
          "name": "role",
          "type": "bytes32"
        },
        {
          "internalType": "address",
          "name": "account",
          "type": "address"
        }
      ],
      "name": "hasRole",
      "outputs": [
        {
          "internalType": "bool",
          "name": "",
          "type": "bool"
        }
      ],
      "stateMutability": "view",
      "type": "function"
    },
    {
      "inputs": [
        {
          "internalType": "address",
          "name": "account",
          "type": "address"
        },
        {
          "internalType": "string",
          "name": "rarity",
          "type": "string"
        },
        {
          "internalType": "string",
          "name": "cardType",
          "type": "string"
        },
        {
          "internalType": "string",
          "name": "metadataId",
          "type": "string"
        }
      ],
      "name": "mintByOpen",
      "outputs": [
        {
          "internalType": "uint256",
          "name": "nftId",
          "type": "uint256"
        }
      ],
      "stateMutability": "nonpayable",
      "type": "function"
    },
    {
      "inputs": [
        {
          "internalType": "string",
          "name": "rarity",
          "type": "string"
        },
        {
          "internalType": "string",
          "name": "cardType",
          "type": "string"
        },
        {
          "internalType": "string",
          "name": "metadataId",
          "type": "string"
        },
        {
          "internalType": "uint256",
          "name": "orderId",
          "type": "uint256"
        },
        {
          "internalType": "bytes",
          "name": "signature",
          "type": "bytes"
        }
      ],
      "name": "mintByUser",
      "outputs": [
        {
          "internalType": "uint256",
          "name": "nftId",
          "type": "uint256"
        }
      ],
      "stateMutability": "nonpayable",
      "type": "function"
    },
    {
      "inputs": [
        {
          "internalType": "address",
          "name": "operator",
          "type": "address"
        }
      ],
      "name": "removeOperator",
      "outputs": [],
      "stateMutability": "nonpayable",
      "type": "function"
    },
    {
      "inputs": [
        {
          "internalType": "bytes32",
          "name": "role",
          "type": "bytes32"
        },
        {
          "internalType": "address",
          "name": "account",
          "type": "address"
        }
      ],
      "name": "renounceRole",
      "outputs": [],
      "stateMutability": "nonpayable",
      "type": "function"
    },
    {
      "inputs": [
        {
          "internalType": "bytes32",
          "name": "role",
          "type": "bytes32"
        },
        {
          "internalType": "address",
          "name": "account",
          "type": "address"
        }
      ],
      "name": "revokeRole",
      "outputs": [],
      "stateMutability": "nonpayable",
      "type": "function"
    },
    {
      "inputs": [
        {
          "internalType": "contract ICard",
          "name": "_cardContract",
          "type": "address"
        }
      ],
      "name": "setCardContract",
      "outputs": [],
      "stateMutability": "nonpayable",
      "type": "function"
    },
    {
      "inputs": [
        {
          "internalType": "address",
          "name": "_openBoxContract",
          "type": "address"
        }
      ],
      "name": "setOpenBoxContract",
      "outputs": [],
      "stateMutability": "nonpayable",
      "type": "function"
    },
    {
      "inputs": [
        {
          "internalType": "address",
          "name": "_verifier",
          "type": "address"
        }
      ],
      "name": "setVerifier",
      "outputs": [],
      "stateMutability": "nonpayable",
      "type": "function"
    },
    {
      "inputs": [
        {
          "internalType": "bytes4",
          "name": "interfaceId",
          "type": "bytes4"
        }
      ],
      "name": "supportsInterface",
      "outputs": [
        {
          "internalType": "bool",
          "name": "",
          "type": "bool"
        }
      ],
      "stateMutability": "view",
      "type": "function"
    },
    {
      "inputs": [],
      "name": "verifier",
      "outputs": [
        {
          "internalType": "address",
          "name": "",
          "type": "address"
        }
      ],
      "stateMutability": "view",
      "type": "function"
    }
  ],
  "bytecode": "0x60806040523480156200001157600080fd5b50604051620017ed380380620017ed833981016040819052620000349162000211565b600160005560405163c22de00960e01b81526001600160a01b038316600482015273__$a065cda3d27a62d706f1ffaad78cd6fa66$__9063c22de0099060240160006040518083038186803b1580156200008d57600080fd5b505af4158015620000a2573d6000803e3d6000fd5b5050604051632f47185360e11b81526001600160a01b038416600482015273__$a065cda3d27a62d706f1ffaad78cd6fa66$__9250635e8e30a6915060240160006040518083038186803b158015620000fa57600080fd5b505af41580156200010f573d6000803e3d6000fd5b5050600380546001600160a01b038087166001600160a01b0319928316179092556002805492861692909116919091179055506200015890506000620001523390565b62000160565b505062000250565b6200016c828262000170565b5050565b60008281526001602090815260408083206001600160a01b038516845290915290205460ff166200016c5760008281526001602081815260408084206001600160a01b0386168086529252808420805460ff19169093179092559051339285917f2f8788117e7eff1d82e926ec794901d17c78024a50270940304540a733656f0d9190a45050565b6001600160a01b03811681146200020e57600080fd5b50565b600080604083850312156200022557600080fd5b82516200023281620001f8565b60208401519092506200024581620001f8565b809150509250929050565b61158d80620002606000396000f3fe608060405234801561001057600080fd5b506004361061010b5760003560e01c806391d14854116100a2578063a217fddf11610071578063a217fddf14610256578063ac8a584a1461025e578063c030d8b814610271578063d547741f14610284578063fe9b8b9a1461029757600080fd5b806391d14854146101f6578063983d2737146102095780639870d7fe146102305780639a94519c1461024357600080fd5b806336568abe116100de57806336568abe146101aa5780634502e3ab146101bd5780635437988d146101d0578063693bd2d0146101e357600080fd5b806301ffc9a714610110578063248a9ca3146101385780632b7ac3f31461016a5780632f2ff15d14610195575b600080fd5b61012361011e366004610f33565b6102aa565b60405190151581526020015b60405180910390f35b61015c610146366004610f5d565b6000908152600160208190526040909120015490565b60405190815260200161012f565b60025461017d906001600160a01b031681565b6040516001600160a01b03909116815260200161012f565b6101a86101a3366004610f8b565b6102e1565b005b6101a86101b8366004610f8b565b61030c565b6101a86101cb366004610fbb565b61038f565b6101a86101de366004610fbb565b610444565b60035461017d906001600160a01b031681565b610123610204366004610f8b565b6104f9565b61015c7f523a704056dcd17bcf83bed8b68c59416dac1119be77755efe3bde0a64e46e0c81565b6101a861023e366004610fbb565b610524565b61015c610251366004611090565b610578565b61015c600081565b6101a861026c366004610fbb565b6108a7565b6101a861027f366004610fbb565b6108f8565b6101a8610292366004610f8b565b6109ad565b61015c6102a536600461119a565b6109d3565b60006001600160e01b03198216637965db0b60e01b14806102db57506301ffc9a760e01b6001600160e01b03198316145b92915050565b600082815260016020819052604090912001546102fd81610c50565b6103078383610c5a565b505050565b6001600160a01b03811633146103815760405162461bcd60e51b815260206004820152602f60248201527f416363657373436f6e74726f6c3a2063616e206f6e6c792072656e6f756e636560448201526e103937b632b9903337b91039b2b63360891b60648201526084015b60405180910390fd5b61038b8282610cc5565b5050565b61039a6000336104f9565b6103b65760405162461bcd60e51b815260040161037890611247565b60405163c22de00960e01b81526001600160a01b038216600482015273__$a065cda3d27a62d706f1ffaad78cd6fa66$__9063c22de0099060240160006040518083038186803b15801561040957600080fd5b505af415801561041d573d6000803e3d6000fd5b5050600480546001600160a01b0319166001600160a01b0394909416939093179092555050565b61044f6000336104f9565b61046b5760405162461bcd60e51b815260040161037890611247565b604051632f47185360e11b81526001600160a01b038216600482015273__$a065cda3d27a62d706f1ffaad78cd6fa66$__90635e8e30a69060240160006040518083038186803b1580156104be57600080fd5b505af41580156104d2573d6000803e3d6000fd5b5050600280546001600160a01b0319166001600160a01b0394909416939093179092555050565b60009182526001602090815260408084206001600160a01b0393909316845291905290205460ff1690565b61052f6000336104f9565b61054b5760405162461bcd60e51b815260040161037890611247565b6105757f523a704056dcd17bcf83bed8b68c59416dac1119be77755efe3bde0a64e46e0c826102e1565b50565b60006002600054036105cc5760405162461bcd60e51b815260206004820152601f60248201527f5265656e7472616e637947756172643a207265656e7472616e742063616c6c006044820152606401610378565b6002600055604080516020601f8b01819004810282018101909252898152908a908a908190840183828082843760009201919091525050604051631869a1d960e31b815273__$6a6c20af32701c6be91b0825b1b22b7f62$__9363c34d0ec8935061063b9250906004016112ce565b60006040518083038186803b15801561065357600080fd5b505af4158015610667573d6000803e3d6000fd5b5050505086868080601f016020809104026020016040519081016040528093929190818152602001838380828437600092019190915250506040516326e3893160e21b815273__$6a6c20af32701c6be91b0825b1b22b7f62$__93639b8e24c493506106d79250906004016112ce565b60006040518083038186803b1580156106ef57600080fd5b505af4158015610703573d6000803e3d6000fd5b50506002546003546040805163af82a92760e01b8152905173__$931a4377c5b1d79b54b9327571af961974$__95506324e359e794506001600160a01b039384169389938c938c93919092169163af82a9279160048083019260009291908290030181865afa15801561077a573d6000803e3d6000fd5b505050506040513d6000823e601f3d908101601f191682016040526107a291908101906112e1565b60016040516020016107b8959493929190611358565b604051602081830303815290604052856040518463ffffffff1660e01b81526004016107e693929190611398565b60006040518083038186803b1580156107fe57600080fd5b505af4158015610812573d6000803e3d6000fd5b5050600354604051635ee8904b60e11b81526001600160a01b03909116925063bdd1209691506108529033908d908d908d908d908d908d90600401611401565b6020604051808303816000875af1158015610871573d6000803e3d6000fd5b505050506040513d601f19601f82011682018060405250810190610895919061145c565b60016000559998505050505050505050565b6108b26000336104f9565b6108ce5760405162461bcd60e51b815260040161037890611247565b6105757f523a704056dcd17bcf83bed8b68c59416dac1119be77755efe3bde0a64e46e0c826109ad565b6109036000336104f9565b61091f5760405162461bcd60e51b815260040161037890611247565b60405163c22de00960e01b81526001600160a01b038216600482015273__$a065cda3d27a62d706f1ffaad78cd6fa66$__9063c22de0099060240160006040518083038186803b15801561097257600080fd5b505af4158015610986573d6000803e3d6000fd5b5050600380546001600160a01b0319166001600160a01b0394909416939093179092555050565b600082815260016020819052604090912001546109c981610c50565b6103078383610cc5565b6000600260005403610a275760405162461bcd60e51b815260206004820152601f60248201527f5265656e7472616e637947756172643a207265656e7472616e742063616c6c006044820152606401610378565b60026000556004546001600160a01b0316336001600160a01b031614610a885760405162461bcd60e51b8152602060048201526016602482015275135a5b9d10d85c990e88155b985d5d1a1bdc9a5e995960521b6044820152606401610378565b86868080601f01602080910402602001604051908101604052809392919081815260200183838082843760009201919091525050604051631869a1d960e31b815273__$6a6c20af32701c6be91b0825b1b22b7f62$__9363c34d0ec89350610af49250906004016112ce565b60006040518083038186803b158015610b0c57600080fd5b505af4158015610b20573d6000803e3d6000fd5b5050505084848080601f016020809104026020016040519081016040528093929190818152602001838380828437600092019190915250506040516326e3893160e21b815273__$6a6c20af32701c6be91b0825b1b22b7f62$__93639b8e24c49350610b909250906004016112ce565b60006040518083038186803b158015610ba857600080fd5b505af4158015610bbc573d6000803e3d6000fd5b5050600354604051635ee8904b60e11b81526001600160a01b03909116925063bdd120969150610bfc908b908b908b908b908b908b908b90600401611401565b6020604051808303816000875af1158015610c1b573d6000803e3d6000fd5b505050506040513d601f19601f82011682018060405250810190610c3f919061145c565b600160005598975050505050505050565b6105758133610d2c565b610c6482826104f9565b61038b5760008281526001602081815260408084206001600160a01b0386168086529252808420805460ff19169093179092559051339285917f2f8788117e7eff1d82e926ec794901d17c78024a50270940304540a733656f0d9190a45050565b610ccf82826104f9565b1561038b5760008281526001602090815260408083206001600160a01b0385168085529252808320805460ff1916905551339285917ff6391f5c32d9c69d2a47ea670b442974b53935d1edc7fd64eb21e047a839171b9190a45050565b610d3682826104f9565b61038b57610d4e816001600160a01b03166014610d90565b610d59836020610d90565b604051602001610d6a929190611475565b60408051601f198184030181529082905262461bcd60e51b8252610378916004016112ce565b60606000610d9f836002611500565b610daa906002611517565b67ffffffffffffffff811115610dc257610dc2611021565b6040519080825280601f01601f191660200182016040528015610dec576020820181803683370190505b509050600360fc1b81600081518110610e0757610e0761152a565b60200101906001600160f81b031916908160001a905350600f60fb1b81600181518110610e3657610e3661152a565b60200101906001600160f81b031916908160001a9053506000610e5a846002611500565b610e65906001611517565b90505b6001811115610edd576f181899199a1a9b1b9c1cb0b131b232b360811b85600f1660108110610e9957610e9961152a565b1a60f81b828281518110610eaf57610eaf61152a565b60200101906001600160f81b031916908160001a90535060049490941c93610ed681611540565b9050610e68565b508315610f2c5760405162461bcd60e51b815260206004820181905260248201527f537472696e67733a20686578206c656e67746820696e73756666696369656e746044820152606401610378565b9392505050565b600060208284031215610f4557600080fd5b81356001600160e01b031981168114610f2c57600080fd5b600060208284031215610f6f57600080fd5b5035919050565b6001600160a01b038116811461057557600080fd5b60008060408385031215610f9e57600080fd5b823591506020830135610fb081610f76565b809150509250929050565b600060208284031215610fcd57600080fd5b8135610f2c81610f76565b60008083601f840112610fea57600080fd5b50813567ffffffffffffffff81111561100257600080fd5b60208301915083602082850101111561101a57600080fd5b9250929050565b634e487b7160e01b600052604160045260246000fd5b604051601f8201601f1916810167ffffffffffffffff8111828210171561106057611060611021565b604052919050565b600067ffffffffffffffff82111561108257611082611021565b50601f01601f191660200190565b60008060008060008060008060a0898b0312156110ac57600080fd5b883567ffffffffffffffff808211156110c457600080fd5b6110d08c838d01610fd8565b909a50985060208b01359150808211156110e957600080fd5b6110f58c838d01610fd8565b909850965060408b013591508082111561110e57600080fd5b61111a8c838d01610fd8565b909650945060608b0135935060808b013591508082111561113a57600080fd5b508901601f81018b1361114c57600080fd5b803561115f61115a82611068565b611037565b8181528c602083850101111561117457600080fd5b816020840160208301376000602083830101528093505050509295985092959890939650565b60008060008060008060006080888a0312156111b557600080fd5b87356111c081610f76565b9650602088013567ffffffffffffffff808211156111dd57600080fd5b6111e98b838c01610fd8565b909850965060408a013591508082111561120257600080fd5b61120e8b838c01610fd8565b909650945060608a013591508082111561122757600080fd5b506112348a828b01610fd8565b989b979a50959850939692959293505050565b60208082526017908201527f43616c6c6572206973206e6f74207468652061646d696e000000000000000000604082015260600190565b60005b83811015611299578181015183820152602001611281565b50506000910152565b600081518084526112ba81602086016020860161127e565b601f01601f19169290920160200192915050565b602081526000610f2c60208301846112a2565b6000602082840312156112f357600080fd5b815167ffffffffffffffff81111561130a57600080fd5b8201601f8101841361131b57600080fd5b805161132961115a82611068565b81815285602083850101111561133e57600080fd5b61134f82602083016020860161127e565b95945050505050565b8581528385602083013760008482016020810160008152855161137f818360208a0161127e565b6020920191820194909452604001979650505050505050565b6001600160a01b03841681526060602082018190526000906113bc908301856112a2565b82810360408401526113ce81856112a2565b9695505050505050565b81835281816020850137506000828201602090810191909152601f909101601f19169091010190565b6001600160a01b0388168152608060208201819052600090611426908301888a6113d8565b82810360408401526114398187896113d8565b9050828103606084015261144e8185876113d8565b9a9950505050505050505050565b60006020828403121561146e57600080fd5b5051919050565b7f416363657373436f6e74726f6c3a206163636f756e74200000000000000000008152600083516114ad81601785016020880161127e565b7001034b99036b4b9b9b4b733903937b6329607d1b60179184019182015283516114de81602884016020880161127e565b01602801949350505050565b634e487b7160e01b600052601160045260246000fd5b80820281158282048414176102db576102db6114ea565b808201808211156102db576102db6114ea565b634e487b7160e01b600052603260045260246000fd5b60008161154f5761154f6114ea565b50600019019056fea264697066735822122051c6c97348dfd9f28529f5996a5b09c5248b30d0b93a07a942ebbf20b9e36f6164736f6c63430008110033",
  "linkReferences": {
    "contracts/libs/Address.sol": {
      "AddressLib": [
        {
          "length": 20,
          "start": 87
        },
        {
          "length": 20,
          "start": 194
        },
        {
          "length": 20,
          "start": 1588
        },
        {
          "length": 20,
          "start": 1769
        },
        {
          "length": 20,
          "start": 2973
        }
      ]
    },
    "contracts/libs/IndexString.sol": {
      "IndexString": [
        {
          "length": 20,
          "start": 2162
        },
        {
          "length": 20,
          "start": 2318
        },
        {
          "length": 20,
          "start": 3371
        },
        {
          "length": 20,
          "start": 3527
        }
      ]
    },
    "contracts/libs/Signature.sol": {
      "Signature": [
        {
          "length": 20,
          "start": 2429
        }
      ]
    }
  },
  "deployedLinkReferences": {
    "contracts/libs/Address.sol": {
      "AddressLib": [
        {
          "length": 20,
          "start": 980
        },
        {
          "length": 20,
          "start": 1161
        },
        {
          "length": 20,
          "start": 2365
        }
      ]
    },
    "contracts/libs/IndexString.sol": {
      "IndexString": [
        {
          "length": 20,
          "start": 1554
        },
        {
          "length": 20,
          "start": 1710
        },
        {
          "length": 20,
          "start": 2763
        },
        {
          "length": 20,
          "start": 2919
        }
      ]
    },
    "contracts/libs/Signature.sol": {
      "Signature": [
        {
          "length": 20,
          "start": 1821
        }
      ]
    }
  }
}