{
  "_format": "hh-sol-artifact-1",
  "contractName": "StakingSFT",
  "sourceName": "contracts/staking/StakingSFT.sol",
  "abi": [
    {
      "inputs": [
        {
          "internalType": "contract ISFT",
          "name": "_sftContract",
          "type": "address"
        },
        {
          "internalType": "address",
          "name": "_verifier",
          "type": "address"
        }
      ],
      "stateMutability": "nonpayable",
      "type": "constructor"
    },
    {
      "anonymous": false,
      "inputs": [
        {
          "indexed": true,
          "internalType": "bytes32",
          "name": "role",
          "type": "bytes32"
        },
        {
          "indexed": true,
          "internalType": "bytes32",
          "name": "previousAdminRole",
          "type": "bytes32"
        },
        {
          "indexed": true,
          "internalType": "bytes32",
          "name": "newAdminRole",
          "type": "bytes32"
        }
      ],
      "name": "RoleAdminChanged",
      "type": "event"
    },
    {
      "anonymous": false,
      "inputs": [
        {
          "indexed": true,
          "internalType": "bytes32",
          "name": "role",
          "type": "bytes32"
        },
        {
          "indexed": true,
          "internalType": "address",
          "name": "account",
          "type": "address"
        },
        {
          "indexed": true,
          "internalType": "address",
          "name": "sender",
          "type": "address"
        }
      ],
      "name": "RoleGranted",
      "type": "event"
    },
    {
      "anonymous": false,
      "inputs": [
        {
          "indexed": true,
          "internalType": "bytes32",
          "name": "role",
          "type": "bytes32"
        },
        {
          "indexed": true,
          "internalType": "address",
          "name": "account",
          "type": "address"
        },
        {
          "indexed": true,
          "internalType": "address",
          "name": "sender",
          "type": "address"
        }
      ],
      "name": "RoleRevoked",
      "type": "event"
    },
    {
      "anonymous": false,
      "inputs": [
        {
          "indexed": false,
          "internalType": "uint256",
          "name": "orderId",
          "type": "uint256"
        },
        {
          "indexed": false,
          "internalType": "uint256",
          "name": "transactionId",
          "type": "uint256"
        },
        {
          "indexed": false,
          "internalType": "string",
          "name": "actionType",
          "type": "string"
        },
        {
          "indexed": false,
          "internalType": "contract ISFT",
          "name": "sftContract",
          "type": "address"
        },
        {
          "indexed": false,
          "internalType": "address",
          "name": "account",
          "type": "address"
        },
        {
          "indexed": false,
          "internalType": "uint256",
          "name": "timestamp",
          "type": "uint256"
        }
      ],
      "name": "SFTCancelOrder",
      "type": "event"
    },
    {
      "anonymous": false,
      "inputs": [
        {
          "indexed": false,
          "internalType": "uint256",
          "name": "orderId",
          "type": "uint256"
        },
        {
          "indexed": false,
          "internalType": "contract ISFT",
          "name": "sftContract",
          "type": "address"
        },
        {
          "indexed": false,
          "internalType": "address",
          "name": "account",
          "type": "address"
        },
        {
          "indexed": false,
          "internalType": "uint256",
          "name": "amount",
          "type": "uint256"
        },
        {
          "indexed": false,
          "internalType": "string",
          "name": "itemClass",
          "type": "string"
        },
        {
          "indexed": false,
          "internalType": "uint256",
          "name": "timestamp",
          "type": "uint256"
        }
      ],
      "name": "SFTStaked",
      "type": "event"
    },
    {
      "anonymous": false,
      "inputs": [
        {
          "indexed": false,
          "internalType": "uint256",
          "name": "orderId",
          "type": "uint256"
        },
        {
          "indexed": false,
          "internalType": "contract ISFT",
          "name": "sftContract",
          "type": "address"
        },
        {
          "indexed": false,
          "internalType": "address",
          "name": "account",
          "type": "address"
        },
        {
          "indexed": false,
          "internalType": "uint256",
          "name": "amount",
          "type": "uint256"
        },
        {
          "indexed": false,
          "internalType": "uint256",
          "name": "timestamp",
          "type": "uint256"
        }
      ],
      "name": "SFTUnstaked",
      "type": "event"
    },
    {
      "inputs": [],
      "name": "DEFAULT_ADMIN_ROLE",
      "outputs": [
        {
          "internalType": "bytes32",
          "name": "",
          "type": "bytes32"
        }
      ],
      "stateMutability": "view",
      "type": "function"
    },
    {
      "inputs": [],
      "name": "OPERATOR",
      "outputs": [
        {
          "internalType": "bytes32",
          "name": "",
          "type": "bytes32"
        }
      ],
      "stateMutability": "view",
      "type": "function"
    },
    {
      "inputs": [
        {
          "internalType": "address",
          "name": "operator",
          "type": "address"
        }
      ],
      "name": "addOperator",
      "outputs": [],
      "stateMutability": "nonpayable",
      "type": "function"
    },
    {
      "inputs": [
        {
          "internalType": "uint256",
          "name": "orderId",
          "type": "uint256"
        },
        {
          "internalType": "uint256",
          "name": "transactionId",
          "type": "uint256"
        },
        {
          "internalType": "string",
          "name": "actionType",
          "type": "string"
        },
        {
          "internalType": "bytes",
          "name": "signature",
          "type": "bytes"
        }
      ],
      "name": "cancelOrder",
      "outputs": [],
      "stateMutability": "nonpayable",
      "type": "function"
    },
    {
      "inputs": [
        {
          "internalType": "bytes32",
          "name": "role",
          "type": "bytes32"
        }
      ],
      "name": "getRoleAdmin",
      "outputs": [
        {
          "internalType": "bytes32",
          "name": "",
          "type": "bytes32"
        }
      ],
      "stateMutability": "view",
      "type": "function"
    },
    {
      "inputs": [
        {
          "internalType": "bytes32",
          "name": "role",
          "type": "bytes32"
        },
        {
          "internalType": "address",
          "name": "account",
          "type": "address"
        }
      ],
      "name": "grantRole",
      "outputs": [],
      "stateMutability": "nonpayable",
      "type": "function"
    },
    {
      "inputs": [
        {
          "internalType": "bytes32",
          "name": "role",
          "type": "bytes32"
        },
        {
          "internalType": "address",
          "name": "account",
          "type": "address"
        }
      ],
      "name": "hasRole",
      "outputs": [
        {
          "internalType": "bool",
          "name": "",
          "type": "bool"
        }
      ],
      "stateMutability": "view",
      "type": "function"
    },
    {
      "inputs": [
        {
          "internalType": "address",
          "name": "",
          "type": "address"
        }
      ],
      "name": "numOfStakedSFTByAccount",
      "outputs": [
        {
          "internalType": "uint256",
          "name": "",
          "type": "uint256"
        }
      ],
      "stateMutability": "view",
      "type": "function"
    },
    {
      "inputs": [
        {
          "internalType": "address",
          "name": "",
          "type": "address"
        },
        {
          "internalType": "address",
          "name": "",
          "type": "address"
        },
        {
          "internalType": "uint256[]",
          "name": "",
          "type": "uint256[]"
        },
        {
          "internalType": "uint256[]",
          "name": "",
          "type": "uint256[]"
        },
        {
          "internalType": "bytes",
          "name": "",
          "type": "bytes"
        }
      ],
      "name": "onERC1155BatchReceived",
      "outputs": [
        {
          "internalType": "bytes4",
          "name": "",
          "type": "bytes4"
        }
      ],
      "stateMutability": "nonpayable",
      "type": "function"
    },
    {
      "inputs": [
        {
          "internalType": "address",
          "name": "",
          "type": "address"
        },
        {
          "internalType": "address",
          "name": "",
          "type": "address"
        },
        {
          "internalType": "uint256",
          "name": "",
          "type": "uint256"
        },
        {
          "internalType": "uint256",
          "name": "",
          "type": "uint256"
        },
        {
          "internalType": "bytes",
          "name": "",
          "type": "bytes"
        }
      ],
      "name": "onERC1155Received",
      "outputs": [
        {
          "internalType": "bytes4",
          "name": "",
          "type": "bytes4"
        }
      ],
      "stateMutability": "nonpayable",
      "type": "function"
    },
    {
      "inputs": [
        {
          "internalType": "address",
          "name": "operator",
          "type": "address"
        }
      ],
      "name": "removeOperator",
      "outputs": [],
      "stateMutability": "nonpayable",
      "type": "function"
    },
    {
      "inputs": [
        {
          "internalType": "bytes32",
          "name": "role",
          "type": "bytes32"
        },
        {
          "internalType": "address",
          "name": "account",
          "type": "address"
        }
      ],
      "name": "renounceRole",
      "outputs": [],
      "stateMutability": "nonpayable",
      "type": "function"
    },
    {
      "inputs": [
        {
          "internalType": "bytes32",
          "name": "role",
          "type": "bytes32"
        },
        {
          "internalType": "address",
          "name": "account",
          "type": "address"
        }
      ],
      "name": "revokeRole",
      "outputs": [],
      "stateMutability": "nonpayable",
      "type": "function"
    },
    {
      "inputs": [
        {
          "internalType": "contract ISFT",
          "name": "_sftContract",
          "type": "address"
        }
      ],
      "name": "setSFTContracts",
      "outputs": [],
      "stateMutability": "nonpayable",
      "type": "function"
    },
    {
      "inputs": [
        {
          "internalType": "address",
          "name": "_verifier",
          "type": "address"
        }
      ],
      "name": "setVerifier",
      "outputs": [],
      "stateMutability": "nonpayable",
      "type": "function"
    },
    {
      "inputs": [],
      "name": "sftContract",
      "outputs": [
        {
          "internalType": "contract ISFT",
          "name": "",
          "type": "address"
        }
      ],
      "stateMutability": "view",
      "type": "function"
    },
    {
      "inputs": [
        {
          "internalType": "uint256",
          "name": "orderId",
          "type": "uint256"
        },
        {
          "internalType": "uint256",
          "name": "typeId",
          "type": "uint256"
        },
        {
          "internalType": "uint256",
          "name": "amount",
          "type": "uint256"
        },
        {
          "internalType": "bytes",
          "name": "signature",
          "type": "bytes"
        }
      ],
      "name": "stake",
      "outputs": [],
      "stateMutability": "nonpayable",
      "type": "function"
    },
    {
      "inputs": [
        {
          "internalType": "uint256",
          "name": "",
          "type": "uint256"
        }
      ],
      "name": "statusOrder",
      "outputs": [
        {
          "internalType": "enum IEnums.StatusOrder",
          "name": "",
          "type": "uint8"
        }
      ],
      "stateMutability": "view",
      "type": "function"
    },
    {
      "inputs": [
        {
          "internalType": "bytes4",
          "name": "interfaceId",
          "type": "bytes4"
        }
      ],
      "name": "supportsInterface",
      "outputs": [
        {
          "internalType": "bool",
          "name": "",
          "type": "bool"
        }
      ],
      "stateMutability": "view",
      "type": "function"
    },
    {
      "inputs": [
        {
          "internalType": "uint256",
          "name": "orderId",
          "type": "uint256"
        },
        {
          "internalType": "string",
          "name": "metadataId",
          "type": "string"
        },
        {
          "internalType": "uint256",
          "name": "amount",
          "type": "uint256"
        },
        {
          "internalType": "bytes",
          "name": "signature",
          "type": "bytes"
        }
      ],
      "name": "unstake",
      "outputs": [],
      "stateMutability": "nonpayable",
      "type": "function"
    }
  ],
  "bytecode": "0x60806040523480156200001157600080fd5b5060405162001d4138038062001d41833981016040819052620000349162000211565b600160005560405163c22de00960e01b81526001600160a01b038316600482015273__$a065cda3d27a62d706f1ffaad78cd6fa66$__9063c22de0099060240160006040518083038186803b1580156200008d57600080fd5b505af4158015620000a2573d6000803e3d6000fd5b5050604051632f47185360e11b81526001600160a01b038416600482015273__$a065cda3d27a62d706f1ffaad78cd6fa66$__9250635e8e30a6915060240160006040518083038186803b158015620000fa57600080fd5b505af41580156200010f573d6000803e3d6000fd5b5050600280546001600160a01b038087166001600160a01b0319928316179092556003805492861692909116919091179055506200015890506000620001523390565b62000160565b505062000250565b6200016c828262000170565b5050565b60008281526001602090815260408083206001600160a01b038516845290915290205460ff166200016c5760008281526001602081815260408084206001600160a01b0386168086529252808420805460ff19169093179092559051339285917f2f8788117e7eff1d82e926ec794901d17c78024a50270940304540a733656f0d9190a45050565b6001600160a01b03811681146200020e57600080fd5b50565b600080604083850312156200022557600080fd5b82516200023281620001f8565b60208401519092506200024581620001f8565b809150509250929050565b611ae180620002606000396000f3fe608060405234801561001057600080fd5b506004361061012c5760003560e01c8063983d2737116100ad578063bc197c8111610071578063bc197c81146102aa578063c096f114146102e2578063d547741f1461030d578063e248d84e14610320578063f23a6e611461034057600080fd5b8063983d2737146102255780639870d7fe1461024c578063a217fddf1461025f578063aa20b1d014610267578063ac8a584a1461029757600080fd5b806336568abe116100f457806336568abe146101c65780635437988d146101d95780635f6ff990146101ec578063878ef409146101ff57806391d148541461021257600080fd5b806301ffc9a7146101315780630f485f4314610159578063209942281461016e578063248a9ca3146101815780632f2ff15d146101b3575b600080fd5b61014461013f366004611158565b61035f565b60405190151581526020015b60405180910390f35b61016c610167366004611197565b610370565b005b61016c61017c3660046111fd565b61042e565b6101a561018f36600461125e565b6000908152600160208190526040909120015490565b604051908152602001610150565b61016c6101c1366004611277565b61072d565b61016c6101d4366004611277565b610758565b61016c6101e7366004611197565b6107d6565b61016c6101fa36600461136c565b61088b565b61016c61020d3660046113e9565b610ba7565b610144610220366004611277565b610d29565b6101a57f523a704056dcd17bcf83bed8b68c59416dac1119be77755efe3bde0a64e46e0c81565b61016c61025a366004611197565b610d54565b6101a5600081565b61028a61027536600461125e565b60046020526000908152604090205460ff1681565b6040516101509190611482565b61016c6102a5366004611197565b610da8565b6102c96102b836600461152a565b63bc197c8160e01b95945050505050565b6040516001600160e01b03199091168152602001610150565b6002546102f5906001600160a01b031681565b6040516001600160a01b039091168152602001610150565b61016c61031b366004611277565b610df5565b6101a561032e366004611197565b60056020526000908152604090205481565b6102c961034e3660046115be565b63f23a6e6160e01b95945050505050565b600061036a82610e1b565b92915050565b61037b600033610d29565b6103a05760405162461bcd60e51b815260040161039790611627565b60405180910390fd5b60405163c22de00960e01b81526001600160a01b038216600482015273__$a065cda3d27a62d706f1ffaad78cd6fa66$__9063c22de0099060240160006040518083038186803b1580156103f357600080fd5b505af4158015610407573d6000803e3d6000fd5b5050600280546001600160a01b0319166001600160a01b0394909416939093179092555050565b6002600054036104505760405162461bcd60e51b81526004016103979061165e565b6002600090815560008681526004602052604090205460ff16600281111561047a5761047a61146c565b146104975760405162461bcd60e51b815260040161039790611695565b6003546002546040805163af82a92760e01b8152905173__$931a4377c5b1d79b54b9327571af961974$__936324e359e7936001600160a01b03918216938b938b939092169163af82a927916004808201926000929091908290030181865afa158015610508573d6000803e3d6000fd5b505050506040513d6000823e601f3d908101601f191682016040526105309190810190611701565b886040516020016105449493929190611778565b60405160208183030381529060405285856040518563ffffffff1660e01b81526004016105749493929190611801565b60006040518083038186803b15801561058c57600080fd5b505af41580156105a0573d6000803e3d6000fd5b5050505082600560006105b03390565b6001600160a01b03166001600160a01b0316815260200190815260200160002060008282546105df919061184e565b90915550506002546001600160a01b031663f242432a33306000876040518563ffffffff1660e01b81526004016106199493929190611861565b600060405180830381600087803b15801561063357600080fd5b505af1158015610647573d6000803e3d6000fd5b5050506000868152600460205260409020805460ff19166001179055506002547f7b07591df9106fd922a527c89e380fbd06de8c0105c8fceceff84ea75adeb9769086906001600160a01b0316336002546040805163af82a92760e01b8152905189926001600160a01b03169163af82a9279160048083019260009291908290030181865afa1580156106de573d6000803e3d6000fd5b505050506040513d6000823e601f3d908101601f191682016040526107069190810190611701565b4260405161071996959493929190611899565b60405180910390a150506001600055505050565b6000828152600160208190526040909120015461074981610e40565b6107538383610e4a565b505050565b6001600160a01b03811633146107c85760405162461bcd60e51b815260206004820152602f60248201527f416363657373436f6e74726f6c3a2063616e206f6e6c792072656e6f756e636560448201526e103937b632b9903337b91039b2b63360891b6064820152608401610397565b6107d28282610eb5565b5050565b6107e1600033610d29565b6107fd5760405162461bcd60e51b815260040161039790611627565b604051632f47185360e11b81526001600160a01b038216600482015273__$a065cda3d27a62d706f1ffaad78cd6fa66$__90635e8e30a69060240160006040518083038186803b15801561085057600080fd5b505af4158015610864573d6000803e3d6000fd5b5050600380546001600160a01b0319166001600160a01b0394909416939093179092555050565b6002600054036108ad5760405162461bcd60e51b81526004016103979061165e565b6002600090815560008681526004602052604090205460ff1660028111156108d7576108d761146c565b146108f45760405162461bcd60e51b815260040161039790611695565b6003546002546040805163af82a92760e01b8152905173__$931a4377c5b1d79b54b9327571af961974$__936324e359e7936001600160a01b03918216938b938b938b93169163af82a9279160048083019260009291908290030181865afa158015610964573d6000803e3d6000fd5b505050506040513d6000823e601f3d908101601f1916820160405261098c9190810190611701565b886040516020016109a19594939291906118e5565b604051602081830303815290604052846040518463ffffffff1660e01b81526004016109cf93929190611925565b60006040518083038186803b1580156109e757600080fd5b505af41580156109fb573d6000803e3d6000fd5b5050505060056000610a0a3390565b6001600160a01b03166001600160a01b0316815260200190815260200160002054821115610aa05760405162461bcd60e51b815260206004820152603a60248201527f5374616b696e675346543a2054686520616d6f756e742069732065786365656460448201527f20746865206e756d626572206f66207374616b6564204e4654730000000000006064820152608401610397565b3360009081526005602052604081208054849290610abf908490611965565b90915550506002546001600160a01b031663f242432a30336000866040518563ffffffff1660e01b8152600401610af99493929190611861565b600060405180830381600087803b158015610b1357600080fd5b505af1158015610b27573d6000803e3d6000fd5b5050506000868152600460205260409020805460ff19166001179055506002547f109f46f24ec4cda5d85157301b76cad97fa9833b38bffe63745aa0230853d2e79086906001600160a01b031633604080519384526001600160a01b0392831660208501529116908201526060810184905242608082015260a001610719565b600260005403610bc95760405162461bcd60e51b81526004016103979061165e565b6002600090815560008781526004602052604090205460ff166002811115610bf357610bf361146c565b14610c105760405162461bcd60e51b815260040161039790611695565b60035460405173__$931a4377c5b1d79b54b9327571af961974$__916324e359e7916001600160a01b0390911690610c52908a908a908a908a90602001611978565b60405160208183030381529060405285856040518563ffffffff1660e01b8152600401610c829493929190611801565b60006040518083038186803b158015610c9a57600080fd5b505af4158015610cae573d6000803e3d6000fd5b50505060008781526004602052604090819020805460ff191660029081179091555490517f0942c2e79ef29851fabfca2d2b05fc8d9c29eb9637dbc621c2c5c6ba696424529250610d149189918991899189916001600160a01b03169033904290611999565b60405180910390a15050600160005550505050565b60009182526001602090815260408084206001600160a01b0393909316845291905290205460ff1690565b610d5f600033610d29565b610d7b5760405162461bcd60e51b815260040161039790611627565b610da57f523a704056dcd17bcf83bed8b68c59416dac1119be77755efe3bde0a64e46e0c8261072d565b50565b610db3600033610d29565b610dcf5760405162461bcd60e51b815260040161039790611627565b610da57f523a704056dcd17bcf83bed8b68c59416dac1119be77755efe3bde0a64e46e0c825b60008281526001602081905260409091200154610e1181610e40565b6107538383610eb5565b60006001600160e01b03198216637965db0b60e01b148061036a575061036a82610f1c565b610da58133610f51565b610e548282610d29565b6107d25760008281526001602081815260408084206001600160a01b0386168086529252808420805460ff19169093179092559051339285917f2f8788117e7eff1d82e926ec794901d17c78024a50270940304540a733656f0d9190a45050565b610ebf8282610d29565b156107d25760008281526001602090815260408083206001600160a01b0385168085529252808320805460ff1916905551339285917ff6391f5c32d9c69d2a47ea670b442974b53935d1edc7fd64eb21e047a839171b9190a45050565b60006001600160e01b03198216630271189760e51b148061036a57506301ffc9a760e01b6001600160e01b031983161461036a565b610f5b8282610d29565b6107d257610f73816001600160a01b03166014610fb5565b610f7e836020610fb5565b604051602001610f8f9291906119df565b60408051601f198184030181529082905262461bcd60e51b825261039791600401611a54565b60606000610fc4836002611a67565b610fcf90600261184e565b67ffffffffffffffff811115610fe757610fe76112a7565b6040519080825280601f01601f191660200182016040528015611011576020820181803683370190505b509050600360fc1b8160008151811061102c5761102c611a7e565b60200101906001600160f81b031916908160001a905350600f60fb1b8160018151811061105b5761105b611a7e565b60200101906001600160f81b031916908160001a905350600061107f846002611a67565b61108a90600161184e565b90505b6001811115611102576f181899199a1a9b1b9c1cb0b131b232b360811b85600f16601081106110be576110be611a7e565b1a60f81b8282815181106110d4576110d4611a7e565b60200101906001600160f81b031916908160001a90535060049490941c936110fb81611a94565b905061108d565b5083156111515760405162461bcd60e51b815260206004820181905260248201527f537472696e67733a20686578206c656e67746820696e73756666696369656e746044820152606401610397565b9392505050565b60006020828403121561116a57600080fd5b81356001600160e01b03198116811461115157600080fd5b6001600160a01b0381168114610da557600080fd5b6000602082840312156111a957600080fd5b813561115181611182565b60008083601f8401126111c657600080fd5b50813567ffffffffffffffff8111156111de57600080fd5b6020830191508360208285010111156111f657600080fd5b9250929050565b60008060008060006080868803121561121557600080fd5b853594506020860135935060408601359250606086013567ffffffffffffffff81111561124157600080fd5b61124d888289016111b4565b969995985093965092949392505050565b60006020828403121561127057600080fd5b5035919050565b6000806040838503121561128a57600080fd5b82359150602083013561129c81611182565b809150509250929050565b634e487b7160e01b600052604160045260246000fd5b604051601f8201601f1916810167ffffffffffffffff811182821017156112e6576112e66112a7565b604052919050565b600067ffffffffffffffff821115611308576113086112a7565b50601f01601f191660200190565b600082601f83011261132757600080fd5b813561133a611335826112ee565b6112bd565b81815284602083860101111561134f57600080fd5b816020850160208301376000918101602001919091529392505050565b60008060008060006080868803121561138457600080fd5b85359450602086013567ffffffffffffffff808211156113a357600080fd5b6113af89838a016111b4565b90965094506040880135935060608801359150808211156113cf57600080fd5b506113dc88828901611316565b9150509295509295909350565b6000806000806000806080878903121561140257600080fd5b8635955060208701359450604087013567ffffffffffffffff8082111561142857600080fd5b6114348a838b016111b4565b9096509450606089013591508082111561144d57600080fd5b5061145a89828a016111b4565b979a9699509497509295939492505050565b634e487b7160e01b600052602160045260246000fd5b60208101600383106114a457634e487b7160e01b600052602160045260246000fd5b91905290565b600082601f8301126114bb57600080fd5b8135602067ffffffffffffffff8211156114d7576114d76112a7565b8160051b6114e68282016112bd565b928352848101820192828101908785111561150057600080fd5b83870192505b8483101561151f57823582529183019190830190611506565b979650505050505050565b600080600080600060a0868803121561154257600080fd5b853561154d81611182565b9450602086013561155d81611182565b9350604086013567ffffffffffffffff8082111561157a57600080fd5b61158689838a016114aa565b9450606088013591508082111561159c57600080fd5b6115a889838a016114aa565b935060808801359150808211156113cf57600080fd5b600080600080600060a086880312156115d657600080fd5b85356115e181611182565b945060208601356115f181611182565b93506040860135925060608601359150608086013567ffffffffffffffff81111561161b57600080fd5b6113dc88828901611316565b60208082526017908201527f43616c6c6572206973206e6f74207468652061646d696e000000000000000000604082015260600190565b6020808252601f908201527f5265656e7472616e637947756172643a207265656e7472616e742063616c6c00604082015260600190565b60208082526028908201527f5374616b696e675346543a20546865206f7264657220494420697320616c726560408201526718591e481d5cd95960c21b606082015260800190565b60005b838110156116f85781810151838201526020016116e0565b50506000910152565b60006020828403121561171357600080fd5b815167ffffffffffffffff81111561172a57600080fd5b8201601f8101841361173b57600080fd5b8051611749611335826112ee565b81815285602083850101111561175e57600080fd5b61176f8260208301602086016116dd565b95945050505050565b848152836020820152600083516117968160408501602088016116dd565b6040920191820192909252606001949350505050565b600081518084526117c48160208601602086016116dd565b601f01601f19169290920160200192915050565b81835281816020850137506000828201602090810191909152601f909101601f19169091010190565b6001600160a01b0385168152606060208201819052600090611825908301866117ac565b828103604084015261151f8185876117d8565b634e487b7160e01b600052601160045260246000fd5b8082018082111561036a5761036a611838565b6001600160a01b0394851681529290931660208301526040820152606081019190915260a06080820181905260009082015260c00190565b8681526001600160a01b038681166020830152851660408201526060810184905260c0608082018190526000906118d2908301856117ac565b90508260a0830152979650505050505050565b8581528385602083013760008482016020810160008152855161190c818360208a016116dd565b6020920191820194909452604001979650505050505050565b6001600160a01b0384168152606060208201819052600090611949908301856117ac565b828103604084015261195b81856117ac565b9695505050505050565b8181038181111561036a5761036a611838565b84815283602082015281836040830137600091016040019081529392505050565b87815286602082015260c0604082015260006119b960c0830187896117d8565b6001600160a01b03958616606084015293909416608082015260a0015295945050505050565b7f416363657373436f6e74726f6c3a206163636f756e7420000000000000000000815260008351611a178160178501602088016116dd565b7001034b99036b4b9b9b4b733903937b6329607d1b6017918401918201528351611a488160288401602088016116dd565b01602801949350505050565b60208152600061115160208301846117ac565b808202811582820484141761036a5761036a611838565b634e487b7160e01b600052603260045260246000fd5b600081611aa357611aa3611838565b50600019019056fea2646970667358221220686bf3fe9738488be294349fc6391ade093751738533bf2c6d4c1a84651cf70164736f6c63430008110033",
  "linkReferences": {
    "contracts/libs/Address.sol": {
      "AddressLib": [
        {
          "length": 20,
          "start": 87
        },
        {
          "length": 20,
          "start": 194
        },
        {
          "length": 20,
          "start": 1566
        },
        {
          "length": 20,
          "start": 2683
        }
      ]
    },
    "contracts/libs/Signature.sol": {
      "Signature": [
        {
          "length": 20,
          "start": 1807
        },
        {
          "length": 20,
          "start": 2924
        },
        {
          "length": 20,
          "start": 3704
        }
      ]
    }
  },
  "deployedLinkReferences": {
    "contracts/libs/Address.sol": {
      "AddressLib": [
        {
          "length": 20,
          "start": 958
        },
        {
          "length": 20,
          "start": 2075
        }
      ]
    },
    "contracts/libs/Signature.sol": {
      "Signature": [
        {
          "length": 20,
          "start": 1199
        },
        {
          "length": 20,
          "start": 2316
        },
        {
          "length": 20,
          "start": 3096
        }
      ]
    }
  }
}