{
  "_format": "hh-sol-artifact-1",
  "contractName": "StakingNFT",
  "sourceName": "contracts/staking/StakingNFT.sol",
  "abi": [
    {
      "inputs": [
        {
          "internalType": "contract ICard",
          "name": "_nftContract",
          "type": "address"
        },
        {
          "internalType": "address",
          "name": "_verifier",
          "type": "address"
        },
        {
          "internalType": "uint256",
          "name": "_cooldown",
          "type": "uint256"
        }
      ],
      "stateMutability": "nonpayable",
      "type": "constructor"
    },
    {
      "anonymous": false,
      "inputs": [
        {
          "indexed": false,
          "internalType": "uint256",
          "name": "orderId",
          "type": "uint256"
        },
        {
          "indexed": false,
          "internalType": "uint256",
          "name": "transtractionId",
          "type": "uint256"
        },
        {
          "indexed": false,
          "internalType": "string",
          "name": "actionType",
          "type": "string"
        },
        {
          "indexed": false,
          "internalType": "address",
          "name": "account",
          "type": "address"
        },
        {
          "indexed": false,
          "internalType": "uint256",
          "name": "timestamp",
          "type": "uint256"
        }
      ],
      "name": "NFTCancelOrder",
      "type": "event"
    },
    {
      "anonymous": false,
      "inputs": [
        {
          "indexed": false,
          "internalType": "uint256",
          "name": "orderId",
          "type": "uint256"
        },
        {
          "indexed": false,
          "internalType": "address",
          "name": "account",
          "type": "address"
        },
        {
          "indexed": false,
          "internalType": "contract ICard",
          "name": "nftContract",
          "type": "address"
        },
        {
          "indexed": false,
          "internalType": "uint256",
          "name": "nftId",
          "type": "uint256"
        },
        {
          "indexed": false,
          "internalType": "string",
          "name": "itemClass",
          "type": "string"
        },
        {
          "indexed": false,
          "internalType": "uint256",
          "name": "timestamp",
          "type": "uint256"
        }
      ],
      "name": "NFTStaked",
      "type": "event"
    },
    {
      "anonymous": false,
      "inputs": [
        {
          "indexed": false,
          "internalType": "uint256",
          "name": "orderId",
          "type": "uint256"
        },
        {
          "indexed": false,
          "internalType": "address",
          "name": "account",
          "type": "address"
        },
        {
          "indexed": false,
          "internalType": "contract ICard",
          "name": "nftContract",
          "type": "address"
        },
        {
          "indexed": false,
          "internalType": "uint256",
          "name": "nftId",
          "type": "uint256"
        },
        {
          "indexed": false,
          "internalType": "string",
          "name": "metadataId",
          "type": "string"
        },
        {
          "indexed": false,
          "internalType": "string",
          "name": "itemClass",
          "type": "string"
        },
        {
          "indexed": false,
          "internalType": "uint256",
          "name": "timestamp",
          "type": "uint256"
        }
      ],
      "name": "NFTUnstaked",
      "type": "event"
    },
    {
      "anonymous": false,
      "inputs": [
        {
          "indexed": true,
          "internalType": "bytes32",
          "name": "role",
          "type": "bytes32"
        },
        {
          "indexed": true,
          "internalType": "bytes32",
          "name": "previousAdminRole",
          "type": "bytes32"
        },
        {
          "indexed": true,
          "internalType": "bytes32",
          "name": "newAdminRole",
          "type": "bytes32"
        }
      ],
      "name": "RoleAdminChanged",
      "type": "event"
    },
    {
      "anonymous": false,
      "inputs": [
        {
          "indexed": true,
          "internalType": "bytes32",
          "name": "role",
          "type": "bytes32"
        },
        {
          "indexed": true,
          "internalType": "address",
          "name": "account",
          "type": "address"
        },
        {
          "indexed": true,
          "internalType": "address",
          "name": "sender",
          "type": "address"
        }
      ],
      "name": "RoleGranted",
      "type": "event"
    },
    {
      "anonymous": false,
      "inputs": [
        {
          "indexed": true,
          "internalType": "bytes32",
          "name": "role",
          "type": "bytes32"
        },
        {
          "indexed": true,
          "internalType": "address",
          "name": "account",
          "type": "address"
        },
        {
          "indexed": true,
          "internalType": "address",
          "name": "sender",
          "type": "address"
        }
      ],
      "name": "RoleRevoked",
      "type": "event"
    },
    {
      "inputs": [],
      "name": "DEFAULT_ADMIN_ROLE",
      "outputs": [
        {
          "internalType": "bytes32",
          "name": "",
          "type": "bytes32"
        }
      ],
      "stateMutability": "view",
      "type": "function"
    },
    {
      "inputs": [],
      "name": "OPERATOR",
      "outputs": [
        {
          "internalType": "bytes32",
          "name": "",
          "type": "bytes32"
        }
      ],
      "stateMutability": "view",
      "type": "function"
    },
    {
      "inputs": [
        {
          "internalType": "address",
          "name": "operator",
          "type": "address"
        }
      ],
      "name": "addOperator",
      "outputs": [],
      "stateMutability": "nonpayable",
      "type": "function"
    },
    {
      "inputs": [
        {
          "internalType": "uint256",
          "name": "orderId",
          "type": "uint256"
        },
        {
          "internalType": "uint256",
          "name": "transactionId",
          "type": "uint256"
        },
        {
          "internalType": "string",
          "name": "actionType",
          "type": "string"
        },
        {
          "internalType": "bytes",
          "name": "signature",
          "type": "bytes"
        }
      ],
      "name": "cancelOrder",
      "outputs": [],
      "stateMutability": "nonpayable",
      "type": "function"
    },
    {
      "inputs": [],
      "name": "cooldown",
      "outputs": [
        {
          "internalType": "uint256",
          "name": "",
          "type": "uint256"
        }
      ],
      "stateMutability": "view",
      "type": "function"
    },
    {
      "inputs": [
        {
          "internalType": "bytes32",
          "name": "role",
          "type": "bytes32"
        }
      ],
      "name": "getRoleAdmin",
      "outputs": [
        {
          "internalType": "bytes32",
          "name": "",
          "type": "bytes32"
        }
      ],
      "stateMutability": "view",
      "type": "function"
    },
    {
      "inputs": [
        {
          "internalType": "bytes32",
          "name": "role",
          "type": "bytes32"
        },
        {
          "internalType": "address",
          "name": "account",
          "type": "address"
        }
      ],
      "name": "grantRole",
      "outputs": [],
      "stateMutability": "nonpayable",
      "type": "function"
    },
    {
      "inputs": [
        {
          "internalType": "bytes32",
          "name": "role",
          "type": "bytes32"
        },
        {
          "internalType": "address",
          "name": "account",
          "type": "address"
        }
      ],
      "name": "hasRole",
      "outputs": [
        {
          "internalType": "bool",
          "name": "",
          "type": "bool"
        }
      ],
      "stateMutability": "view",
      "type": "function"
    },
    {
      "inputs": [
        {
          "internalType": "uint256",
          "name": "",
          "type": "uint256"
        }
      ],
      "name": "lastStakingByNFT",
      "outputs": [
        {
          "internalType": "uint256",
          "name": "",
          "type": "uint256"
        }
      ],
      "stateMutability": "view",
      "type": "function"
    },
    {
      "inputs": [],
      "name": "nftContract",
      "outputs": [
        {
          "internalType": "contract ICard",
          "name": "",
          "type": "address"
        }
      ],
      "stateMutability": "view",
      "type": "function"
    },
    {
      "inputs": [
        {
          "internalType": "address",
          "name": "",
          "type": "address"
        },
        {
          "internalType": "address",
          "name": "",
          "type": "address"
        },
        {
          "internalType": "uint256",
          "name": "",
          "type": "uint256"
        },
        {
          "internalType": "bytes",
          "name": "",
          "type": "bytes"
        }
      ],
      "name": "onERC721Received",
      "outputs": [
        {
          "internalType": "bytes4",
          "name": "",
          "type": "bytes4"
        }
      ],
      "stateMutability": "nonpayable",
      "type": "function"
    },
    {
      "inputs": [
        {
          "internalType": "uint256",
          "name": "",
          "type": "uint256"
        }
      ],
      "name": "ownerOfNFT",
      "outputs": [
        {
          "internalType": "address",
          "name": "",
          "type": "address"
        }
      ],
      "stateMutability": "view",
      "type": "function"
    },
    {
      "inputs": [
        {
          "internalType": "address",
          "name": "operator",
          "type": "address"
        }
      ],
      "name": "removeOperator",
      "outputs": [],
      "stateMutability": "nonpayable",
      "type": "function"
    },
    {
      "inputs": [
        {
          "internalType": "bytes32",
          "name": "role",
          "type": "bytes32"
        },
        {
          "internalType": "address",
          "name": "account",
          "type": "address"
        }
      ],
      "name": "renounceRole",
      "outputs": [],
      "stateMutability": "nonpayable",
      "type": "function"
    },
    {
      "inputs": [
        {
          "internalType": "bytes32",
          "name": "role",
          "type": "bytes32"
        },
        {
          "internalType": "address",
          "name": "account",
          "type": "address"
        }
      ],
      "name": "revokeRole",
      "outputs": [],
      "stateMutability": "nonpayable",
      "type": "function"
    },
    {
      "inputs": [
        {
          "internalType": "uint256",
          "name": "_cooldown",
          "type": "uint256"
        }
      ],
      "name": "setCoolDown",
      "outputs": [],
      "stateMutability": "nonpayable",
      "type": "function"
    },
    {
      "inputs": [
        {
          "internalType": "contract ICard",
          "name": "_nftContract",
          "type": "address"
        }
      ],
      "name": "setNFTContract",
      "outputs": [],
      "stateMutability": "nonpayable",
      "type": "function"
    },
    {
      "inputs": [
        {
          "internalType": "address",
          "name": "_verifier",
          "type": "address"
        }
      ],
      "name": "setVerifier",
      "outputs": [],
      "stateMutability": "nonpayable",
      "type": "function"
    },
    {
      "inputs": [
        {
          "internalType": "uint256",
          "name": "orderId",
          "type": "uint256"
        },
        {
          "internalType": "uint256",
          "name": "nftId",
          "type": "uint256"
        },
        {
          "internalType": "bytes",
          "name": "signature",
          "type": "bytes"
        }
      ],
      "name": "stake",
      "outputs": [],
      "stateMutability": "nonpayable",
      "type": "function"
    },
    {
      "inputs": [
        {
          "internalType": "uint256",
          "name": "",
          "type": "uint256"
        }
      ],
      "name": "statusOrder",
      "outputs": [
        {
          "internalType": "enum IEnums.StatusOrder",
          "name": "",
          "type": "uint8"
        }
      ],
      "stateMutability": "view",
      "type": "function"
    },
    {
      "inputs": [
        {
          "internalType": "bytes4",
          "name": "interfaceId",
          "type": "bytes4"
        }
      ],
      "name": "supportsInterface",
      "outputs": [
        {
          "internalType": "bool",
          "name": "",
          "type": "bool"
        }
      ],
      "stateMutability": "view",
      "type": "function"
    },
    {
      "inputs": [
        {
          "internalType": "uint256",
          "name": "orderId",
          "type": "uint256"
        },
        {
          "internalType": "string",
          "name": "metadataId",
          "type": "string"
        },
        {
          "internalType": "uint256",
          "name": "nftId",
          "type": "uint256"
        },
        {
          "internalType": "bytes",
          "name": "signature",
          "type": "bytes"
        }
      ],
      "name": "unstake",
      "outputs": [],
      "stateMutability": "nonpayable",
      "type": "function"
    }
  ],
  "bytecode": "0x60806040523480156200001157600080fd5b5060405162001d3e38038062001d3e833981016040819052620000349162000216565b600160005560405163c22de00960e01b81526001600160a01b038416600482015273__$a065cda3d27a62d706f1ffaad78cd6fa66$__9063c22de0099060240160006040518083038186803b1580156200008d57600080fd5b505af4158015620000a2573d6000803e3d6000fd5b5050604051632f47185360e11b81526001600160a01b038516600482015273__$a065cda3d27a62d706f1ffaad78cd6fa66$__9250635e8e30a6915060240160006040518083038186803b158015620000fa57600080fd5b505af41580156200010f573d6000803e3d6000fd5b5050600280546001600160a01b038088166001600160a01b0319928316179092556004805492871692909116919091179055505060038190556200015c6000620001563390565b62000165565b5050506200025e565b62000171828262000175565b5050565b60008281526001602090815260408083206001600160a01b038516845290915290205460ff16620001715760008281526001602081815260408084206001600160a01b0386168086529252808420805460ff19169093179092559051339285917f2f8788117e7eff1d82e926ec794901d17c78024a50270940304540a733656f0d9190a45050565b6001600160a01b03811681146200021357600080fd5b50565b6000806000606084860312156200022c57600080fd5b83516200023981620001fd565b60208501519093506200024c81620001fd565b80925050604084015190509250925092565b611ad0806200026e6000396000f3fe608060405234801561001057600080fd5b50600436106101425760003560e01c8063878ef409116100b8578063a217fddf1161007c578063a217fddf14610316578063a7ccabdf1461031e578063aa20b1d014610331578063ac8a584a14610361578063d547741f14610374578063d56d229d1461038757600080fd5b8063878ef4091461029657806390c20924146102a957806391d14854146102c9578063983d2737146102dc5780639870d7fe1461030357600080fd5b806336568abe1161010a57806336568abe1461022e57806348c35d46146102415780635437988d146102545780635f6ff99014610267578063787a08a61461027a5780637c56687a1461028357600080fd5b806301ffc9a714610147578063150b7a021461016f578063248a9ca3146101a65780632d8a746e146101d85780632f2ff15d14610219575b600080fd5b61015a6101553660046112b8565b61039a565b60405190151581526020015b60405180910390f35b61018d61017d366004611366565b630a85bd0160e11b949350505050565b6040516001600160e01b03199091168152602001610166565b6101ca6101b4366004611415565b6000908152600160208190526040909120015490565b604051908152602001610166565b6102016101e6366004611415565b6006602052600090815260409020546001600160a01b031681565b6040516001600160a01b039091168152602001610166565b61022c61022736600461142e565b6103d1565b005b61022c61023c36600461142e565b6103fc565b61022c61024f3660046114a7565b61047f565b61022c6102623660046114fa565b610804565b61022c610275366004611517565b6108b9565b6101ca60035481565b61022c610291366004611415565b610ca5565b61022c6102a436600461159a565b610cd1565b6101ca6102b7366004611415565b60076020526000908152604090205481565b61015a6102d736600461142e565b610e2e565b6101ca7f523a704056dcd17bcf83bed8b68c59416dac1119be77755efe3bde0a64e46e0c81565b61022c6103113660046114fa565b610e59565b6101ca600081565b61022c61032c3660046114fa565b610ead565b61035461033f366004611415565b60056020526000908152604090205460ff1681565b6040516101669190611614565b61022c61036f3660046114fa565b610f62565b61022c61038236600461142e565b610faf565b600254610201906001600160a01b031681565b60006001600160e01b03198216637965db0b60e01b14806103cb57506301ffc9a760e01b6001600160e01b03198316145b92915050565b600082815260016020819052604090912001546103ed81610fd5565b6103f78383610fdf565b505050565b6001600160a01b03811633146104715760405162461bcd60e51b815260206004820152602f60248201527f416363657373436f6e74726f6c3a2063616e206f6e6c792072656e6f756e636560448201526e103937b632b9903337b91039b2b63360891b60648201526084015b60405180910390fd5b61047b828261104a565b5050565b6002600054036104a15760405162461bcd60e51b81526004016104689061163c565b6002600090815560008581526005602052604090205460ff1660028111156104cb576104cb6115fe565b146104e85760405162461bcd60e51b815260040161046890611673565b60035460008481526007602052604090205461050491906116d1565b4210156105685760405162461bcd60e51b815260206004820152602c60248201527f5374616b696e674e46543a20596f752061726520696e2077616974696e67207460448201526b696d6520746f207374616b6560a01b6064820152608401610468565b600480546002546040805163af82a92760e01b8152905173__$931a4377c5b1d79b54b9327571af961974$__946324e359e7946001600160a01b03908116948b948b94929091169263af82a9279282820192600092908290030181865afa1580156105d7573d6000803e3d6000fd5b505050506040513d6000823e601f3d908101601f191682016040526105ff9190810190611708565b6001604051602001610614949392919061177f565b60405160208183030381529060405285856040518563ffffffff1660e01b81526004016106449493929190611808565b60006040518083038186803b15801561065c57600080fd5b505af4158015610670573d6000803e3d6000fd5b50505060008481526007602052604090204290555033600084815260066020526040902080546001600160a01b0319166001600160a01b039283161790556002541663b88d4fde336040516001600160e01b031960e084901b1681526001600160a01b03909116600482015230602482015260448101869052608060648201526000608482015260a401600060405180830381600087803b15801561071457600080fd5b505af1158015610728573d6000803e3d6000fd5b5050506000858152600560205260409020805460ff19166001179055507fa8dcf191ca9fd861b2165b04382a13fab9defeb15d4da8c90920c9c91640904084336002546040805163af82a92760e01b815290516001600160a01b03909216918891839163af82a927916004808201926000929091908290030181865afa1580156107b6573d6000803e3d6000fd5b505050506040513d6000823e601f3d908101601f191682016040526107de9190810190611708565b426040516107f19695949392919061184a565b60405180910390a1505060016000555050565b61080f600033610e2e565b61082b5760405162461bcd60e51b815260040161046890611896565b604051632f47185360e11b81526001600160a01b038216600482015273__$a065cda3d27a62d706f1ffaad78cd6fa66$__90635e8e30a69060240160006040518083038186803b15801561087e57600080fd5b505af4158015610892573d6000803e3d6000fd5b5050600480546001600160a01b0319166001600160a01b0394909416939093179092555050565b6002600054036108db5760405162461bcd60e51b81526004016104689061163c565b6002600090815560008781526005602052604090205460ff166002811115610905576109056115fe565b146109225760405162461bcd60e51b815260040161046890611673565b60035460008481526007602052604090205461093e91906116d1565b4210156109a45760405162461bcd60e51b815260206004820152602e60248201527f5374616b696e674e46543a20596f752061726520696e2077616974696e67207460448201526d696d6520746f20756e7374616b6560901b6064820152608401610468565b600480546002546040805163af82a92760e01b8152905173__$931a4377c5b1d79b54b9327571af961974$__946324e359e7946001600160a01b03908116948d948d948d94939092169263af82a9279282820192600092908290030181865afa158015610a15573d6000803e3d6000fd5b505050506040513d6000823e601f3d908101601f19168201604052610a3d9190810190611708565b6001604051602001610a539594939291906118cd565b60405160208183030381529060405285856040518563ffffffff1660e01b8152600401610a839493929190611808565b60006040518083038186803b158015610a9b57600080fd5b505af4158015610aaf573d6000803e3d6000fd5b5050506000848152600660205260409020546001600160a01b03169050336001600160a01b031614610b235760405162461bcd60e51b815260206004820152601860248201527f5374616b696e674e46543a20556e617574686f72697a656400000000000000006044820152606401610468565b6000838152600760209081526040808320429055600690915280822080546001600160a01b03191690556002548151635c46a7ef60e11b815230600482015233602482015260448101879052608060648201526084810184905291516001600160a01b039091169263b88d4fde9260a4808201939182900301818387803b158015610bad57600080fd5b505af1158015610bc1573d6000803e3d6000fd5b5050506000878152600560205260409020805460ff19166001179055507f2ab83781ebc1899a0d1db5643cf66dae4b4f93909343fc14adb45a80471fddb386336002546040805163af82a92760e01b815290516001600160a01b039092169188918b918b91859163af82a927916004808201926000929091908290030181865afa158015610c53573d6000803e3d6000fd5b505050506040513d6000823e601f3d908101601f19168201604052610c7b9190810190611708565b42604051610c9098979695949392919061190d565b60405180910390a15050600160005550505050565b610cb0600033610e2e565b610ccc5760405162461bcd60e51b815260040161046890611896565b600355565b600260005403610cf35760405162461bcd60e51b81526004016104689061163c565b6002600090815560008781526005602052604090205460ff166002811115610d1d57610d1d6115fe565b14610d3a5760405162461bcd60e51b815260040161046890611673565b60045460405173__$931a4377c5b1d79b54b9327571af961974$__916324e359e7916001600160a01b0390911690610d7c908a908a908a908a9060200161196f565b60405160208183030381529060405285856040518563ffffffff1660e01b8152600401610dac9493929190611808565b60006040518083038186803b158015610dc457600080fd5b505af4158015610dd8573d6000803e3d6000fd5b5050506000878152600560205260409020805460ff19166002179055507ffe382de5b89ca872cdd0f87c4a50f92048a8f6a5889add9f6c65991e180444db868686863342604051610c9096959493929190611990565b60009182526001602090815260408084206001600160a01b0393909316845291905290205460ff1690565b610e64600033610e2e565b610e805760405162461bcd60e51b815260040161046890611896565b610eaa7f523a704056dcd17bcf83bed8b68c59416dac1119be77755efe3bde0a64e46e0c826103d1565b50565b610eb8600033610e2e565b610ed45760405162461bcd60e51b815260040161046890611896565b60405163c22de00960e01b81526001600160a01b038216600482015273__$a065cda3d27a62d706f1ffaad78cd6fa66$__9063c22de0099060240160006040518083038186803b158015610f2757600080fd5b505af4158015610f3b573d6000803e3d6000fd5b5050600280546001600160a01b0319166001600160a01b0394909416939093179092555050565b610f6d600033610e2e565b610f895760405162461bcd60e51b815260040161046890611896565b610eaa7f523a704056dcd17bcf83bed8b68c59416dac1119be77755efe3bde0a64e46e0c825b60008281526001602081905260409091200154610fcb81610fd5565b6103f7838361104a565b610eaa81336110b1565b610fe98282610e2e565b61047b5760008281526001602081815260408084206001600160a01b0386168086529252808420805460ff19169093179092559051339285917f2f8788117e7eff1d82e926ec794901d17c78024a50270940304540a733656f0d9190a45050565b6110548282610e2e565b1561047b5760008281526001602090815260408083206001600160a01b0385168085529252808320805460ff1916905551339285917ff6391f5c32d9c69d2a47ea670b442974b53935d1edc7fd64eb21e047a839171b9190a45050565b6110bb8282610e2e565b61047b576110d3816001600160a01b03166014611115565b6110de836020611115565b6040516020016110ef9291906119ce565b60408051601f198184030181529082905262461bcd60e51b825261046891600401611a43565b60606000611124836002611a56565b61112f9060026116d1565b67ffffffffffffffff811115611147576111476112f7565b6040519080825280601f01601f191660200182016040528015611171576020820181803683370190505b509050600360fc1b8160008151811061118c5761118c611a6d565b60200101906001600160f81b031916908160001a905350600f60fb1b816001815181106111bb576111bb611a6d565b60200101906001600160f81b031916908160001a90535060006111df846002611a56565b6111ea9060016116d1565b90505b6001811115611262576f181899199a1a9b1b9c1cb0b131b232b360811b85600f166010811061121e5761121e611a6d565b1a60f81b82828151811061123457611234611a6d565b60200101906001600160f81b031916908160001a90535060049490941c9361125b81611a83565b90506111ed565b5083156112b15760405162461bcd60e51b815260206004820181905260248201527f537472696e67733a20686578206c656e67746820696e73756666696369656e746044820152606401610468565b9392505050565b6000602082840312156112ca57600080fd5b81356001600160e01b0319811681146112b157600080fd5b6001600160a01b0381168114610eaa57600080fd5b634e487b7160e01b600052604160045260246000fd5b604051601f8201601f1916810167ffffffffffffffff81118282101715611336576113366112f7565b604052919050565b600067ffffffffffffffff821115611358576113586112f7565b50601f01601f191660200190565b6000806000806080858703121561137c57600080fd5b8435611387816112e2565b93506020850135611397816112e2565b925060408501359150606085013567ffffffffffffffff8111156113ba57600080fd5b8501601f810187136113cb57600080fd5b80356113de6113d98261133e565b61130d565b8181528860208385010111156113f357600080fd5b8160208401602083013760006020838301015280935050505092959194509250565b60006020828403121561142757600080fd5b5035919050565b6000806040838503121561144157600080fd5b823591506020830135611453816112e2565b809150509250929050565b60008083601f84011261147057600080fd5b50813567ffffffffffffffff81111561148857600080fd5b6020830191508360208285010111156114a057600080fd5b9250929050565b600080600080606085870312156114bd57600080fd5b8435935060208501359250604085013567ffffffffffffffff8111156114e257600080fd5b6114ee8782880161145e565b95989497509550505050565b60006020828403121561150c57600080fd5b81356112b1816112e2565b6000806000806000806080878903121561153057600080fd5b86359550602087013567ffffffffffffffff8082111561154f57600080fd5b61155b8a838b0161145e565b909750955060408901359450606089013591508082111561157b57600080fd5b5061158889828a0161145e565b979a9699509497509295939492505050565b600080600080600080608087890312156115b357600080fd5b8635955060208701359450604087013567ffffffffffffffff808211156115d957600080fd5b6115e58a838b0161145e565b9096509450606089013591508082111561157b57600080fd5b634e487b7160e01b600052602160045260246000fd5b602081016003831061163657634e487b7160e01b600052602160045260246000fd5b91905290565b6020808252601f908201527f5265656e7472616e637947756172643a207265656e7472616e742063616c6c00604082015260600190565b60208082526028908201527f5374616b696e674e46543a20546865206f7264657220494420697320616c726560408201526718591e481d5cd95960c21b606082015260800190565b634e487b7160e01b600052601160045260246000fd5b808201808211156103cb576103cb6116bb565b60005b838110156116ff5781810151838201526020016116e7565b50506000910152565b60006020828403121561171a57600080fd5b815167ffffffffffffffff81111561173157600080fd5b8201601f8101841361174257600080fd5b80516117506113d98261133e565b81815285602083850101111561176557600080fd5b6117768260208301602086016116e4565b95945050505050565b8481528360208201526000835161179d8160408501602088016116e4565b6040920191820192909252606001949350505050565b600081518084526117cb8160208601602086016116e4565b601f01601f19169290920160200192915050565b81835281816020850137506000828201602090810191909152601f909101601f19169091010190565b6001600160a01b038516815260606020820181905260009061182c908301866117b3565b828103604084015261183f8185876117df565b979650505050505050565b8681526001600160a01b038681166020830152851660408201526060810184905260c060808201819052600090611883908301856117b3565b90508260a0830152979650505050505050565b60208082526017908201527f43616c6c6572206973206e6f74207468652061646d696e000000000000000000604082015260600190565b858152838560208301376000848201602081016000815285516118f4818360208a016116e4565b6020920191820194909452604001979650505050505050565b8881526001600160a01b038881166020830152871660408201526060810186905260e06080820181905260009061194790830186886117df565b82810360a084015261195981866117b3565b9150508260c08301529998505050505050505050565b84815283602082015281836040830137600091016040019081529392505050565b86815285602082015260a0604082015260006119b060a0830186886117df565b6001600160a01b039490941660608301525060800152949350505050565b7f416363657373436f6e74726f6c3a206163636f756e7420000000000000000000815260008351611a068160178501602088016116e4565b7001034b99036b4b9b9b4b733903937b6329607d1b6017918401918201528351611a378160288401602088016116e4565b01602801949350505050565b6020815260006112b160208301846117b3565b80820281158282048414176103cb576103cb6116bb565b634e487b7160e01b600052603260045260246000fd5b600081611a9257611a926116bb565b50600019019056fea2646970667358221220ac9d7e944c5c2a6ba93723001ecd165b90d86f0e5cf42ea43241cba5b9f3aebf64736f6c63430008110033",
  "linkReferences": {
    "contracts/libs/Address.sol": {
      "AddressLib": [
        {
          "length": 20,
          "start": 87
        },
        {
          "length": 20,
          "start": 194
        },
        {
          "length": 20,
          "start": 2743
        },
        {
          "length": 20,
          "start": 4448
        }
      ]
    },
    "contracts/libs/Signature.sol": {
      "Signature": [
        {
          "length": 20,
          "start": 2031
        },
        {
          "length": 20,
          "start": 3115
        },
        {
          "length": 20,
          "start": 4016
        }
      ]
    }
  },
  "deployedLinkReferences": {
    "contracts/libs/Address.sol": {
      "AddressLib": [
        {
          "length": 20,
          "start": 2121
        },
        {
          "length": 20,
          "start": 3826
        }
      ]
    },
    "contracts/libs/Signature.sol": {
      "Signature": [
        {
          "length": 20,
          "start": 1409
        },
        {
          "length": 20,
          "start": 2493
        },
        {
          "length": 20,
          "start": 3394
        }
      ]
    }
  }
}