{
  "_format": "hh-sol-artifact-1",
  "contractName": "Toy",
  "sourceName": "contracts/tokens/TOY.sol",
  "abi": [
    {
      "inputs": [
        {
          "internalType": "string",
          "name": "name",
          "type": "string"
        },
        {
          "internalType": "string",
          "name": "symbol",
          "type": "string"
        },
        {
          "internalType": "uint256",
          "name": "initSupply",
          "type": "uint256"
        }
      ],
      "stateMutability": "nonpayable",
      "type": "constructor"
    },
    {
      "anonymous": false,
      "inputs": [
        {
          "indexed": true,
          "internalType": "address",
          "name": "owner",
          "type": "address"
        },
        {
          "indexed": true,
          "internalType": "address",
          "name": "spender",
          "type": "address"
        },
        {
          "indexed": false,
          "internalType": "uint256",
          "name": "value",
          "type": "uint256"
        }
      ],
      "name": "Approval",
      "type": "event"
    },
    {
      "anonymous": false,
      "inputs": [
        {
          "indexed": false,
          "internalType": "bool",
          "name": "enabled_",
          "type": "bool"
        }
      ],
      "name": "EnabledAntibot",
      "type": "event"
    },
    {
      "anonymous": false,
      "inputs": [
        {
          "indexed": false,
          "internalType": "address",
          "name": "account",
          "type": "address"
        }
      ],
      "name": "Paused",
      "type": "event"
    },
    {
      "anonymous": false,
      "inputs": [
        {
          "indexed": true,
          "internalType": "bytes32",
          "name": "role",
          "type": "bytes32"
        },
        {
          "indexed": true,
          "internalType": "bytes32",
          "name": "previousAdminRole",
          "type": "bytes32"
        },
        {
          "indexed": true,
          "internalType": "bytes32",
          "name": "newAdminRole",
          "type": "bytes32"
        }
      ],
      "name": "RoleAdminChanged",
      "type": "event"
    },
    {
      "anonymous": false,
      "inputs": [
        {
          "indexed": true,
          "internalType": "bytes32",
          "name": "role",
          "type": "bytes32"
        },
        {
          "indexed": true,
          "internalType": "address",
          "name": "account",
          "type": "address"
        },
        {
          "indexed": true,
          "internalType": "address",
          "name": "sender",
          "type": "address"
        }
      ],
      "name": "RoleGranted",
      "type": "event"
    },
    {
      "anonymous": false,
      "inputs": [
        {
          "indexed": true,
          "internalType": "bytes32",
          "name": "role",
          "type": "bytes32"
        },
        {
          "indexed": true,
          "internalType": "address",
          "name": "account",
          "type": "address"
        },
        {
          "indexed": true,
          "internalType": "address",
          "name": "sender",
          "type": "address"
        }
      ],
      "name": "RoleRevoked",
      "type": "event"
    },
    {
      "anonymous": false,
      "inputs": [
        {
          "indexed": false,
          "internalType": "address",
          "name": "antiBot_",
          "type": "address"
        }
      ],
      "name": "SetAntiBot",
      "type": "event"
    },
    {
      "anonymous": false,
      "inputs": [
        {
          "indexed": true,
          "internalType": "address",
          "name": "from",
          "type": "address"
        },
        {
          "indexed": true,
          "internalType": "address",
          "name": "to",
          "type": "address"
        },
        {
          "indexed": false,
          "internalType": "uint256",
          "name": "value",
          "type": "uint256"
        }
      ],
      "name": "Transfer",
      "type": "event"
    },
    {
      "anonymous": false,
      "inputs": [
        {
          "indexed": false,
          "internalType": "address",
          "name": "account",
          "type": "address"
        }
      ],
      "name": "Unpaused",
      "type": "event"
    },
    {
      "inputs": [],
      "name": "DEFAULT_ADMIN_ROLE",
      "outputs": [
        {
          "internalType": "bytes32",
          "name": "",
          "type": "bytes32"
        }
      ],
      "stateMutability": "view",
      "type": "function"
    },
    {
      "inputs": [],
      "name": "OPERATOR",
      "outputs": [
        {
          "internalType": "bytes32",
          "name": "",
          "type": "bytes32"
        }
      ],
      "stateMutability": "view",
      "type": "function"
    },
    {
      "inputs": [
        {
          "internalType": "address",
          "name": "operator",
          "type": "address"
        }
      ],
      "name": "addOperator",
      "outputs": [],
      "stateMutability": "nonpayable",
      "type": "function"
    },
    {
      "inputs": [
        {
          "internalType": "address",
          "name": "owner",
          "type": "address"
        },
        {
          "internalType": "address",
          "name": "spender",
          "type": "address"
        }
      ],
      "name": "allowance",
      "outputs": [
        {
          "internalType": "uint256",
          "name": "",
          "type": "uint256"
        }
      ],
      "stateMutability": "view",
      "type": "function"
    },
    {
      "inputs": [
        {
          "internalType": "address",
          "name": "spender",
          "type": "address"
        },
        {
          "internalType": "uint256",
          "name": "amount",
          "type": "uint256"
        }
      ],
      "name": "approve",
      "outputs": [
        {
          "internalType": "bool",
          "name": "",
          "type": "bool"
        }
      ],
      "stateMutability": "nonpayable",
      "type": "function"
    },
    {
      "inputs": [
        {
          "internalType": "address",
          "name": "account",
          "type": "address"
        }
      ],
      "name": "balanceOf",
      "outputs": [
        {
          "internalType": "uint256",
          "name": "",
          "type": "uint256"
        }
      ],
      "stateMutability": "view",
      "type": "function"
    },
    {
      "inputs": [],
      "name": "decimals",
      "outputs": [
        {
          "internalType": "uint8",
          "name": "",
          "type": "uint8"
        }
      ],
      "stateMutability": "view",
      "type": "function"
    },
    {
      "inputs": [
        {
          "internalType": "address",
          "name": "spender",
          "type": "address"
        },
        {
          "internalType": "uint256",
          "name": "subtractedValue",
          "type": "uint256"
        }
      ],
      "name": "decreaseAllowance",
      "outputs": [
        {
          "internalType": "bool",
          "name": "",
          "type": "bool"
        }
      ],
      "stateMutability": "nonpayable",
      "type": "function"
    },
    {
      "inputs": [],
      "name": "enabledAntiBot",
      "outputs": [
        {
          "internalType": "bool",
          "name": "",
          "type": "bool"
        }
      ],
      "stateMutability": "view",
      "type": "function"
    },
    {
      "inputs": [
        {
          "internalType": "bytes32",
          "name": "role",
          "type": "bytes32"
        }
      ],
      "name": "getRoleAdmin",
      "outputs": [
        {
          "internalType": "bytes32",
          "name": "",
          "type": "bytes32"
        }
      ],
      "stateMutability": "view",
      "type": "function"
    },
    {
      "inputs": [
        {
          "internalType": "bytes32",
          "name": "role",
          "type": "bytes32"
        },
        {
          "internalType": "address",
          "name": "account",
          "type": "address"
        }
      ],
      "name": "grantRole",
      "outputs": [],
      "stateMutability": "nonpayable",
      "type": "function"
    },
    {
      "inputs": [
        {
          "internalType": "bytes32",
          "name": "role",
          "type": "bytes32"
        },
        {
          "internalType": "address",
          "name": "account",
          "type": "address"
        }
      ],
      "name": "hasRole",
      "outputs": [
        {
          "internalType": "bool",
          "name": "",
          "type": "bool"
        }
      ],
      "stateMutability": "view",
      "type": "function"
    },
    {
      "inputs": [
        {
          "internalType": "address",
          "name": "spender",
          "type": "address"
        },
        {
          "internalType": "uint256",
          "name": "addedValue",
          "type": "uint256"
        }
      ],
      "name": "increaseAllowance",
      "outputs": [
        {
          "internalType": "bool",
          "name": "",
          "type": "bool"
        }
      ],
      "stateMutability": "nonpayable",
      "type": "function"
    },
    {
      "inputs": [],
      "name": "name",
      "outputs": [
        {
          "internalType": "string",
          "name": "",
          "type": "string"
        }
      ],
      "stateMutability": "view",
      "type": "function"
    },
    {
      "inputs": [],
      "name": "pause",
      "outputs": [],
      "stateMutability": "nonpayable",
      "type": "function"
    },
    {
      "inputs": [],
      "name": "paused",
      "outputs": [
        {
          "internalType": "bool",
          "name": "",
          "type": "bool"
        }
      ],
      "stateMutability": "view",
      "type": "function"
    },
    {
      "inputs": [
        {
          "internalType": "address",
          "name": "operator",
          "type": "address"
        }
      ],
      "name": "removeOperator",
      "outputs": [],
      "stateMutability": "nonpayable",
      "type": "function"
    },
    {
      "inputs": [
        {
          "internalType": "bytes32",
          "name": "role",
          "type": "bytes32"
        },
        {
          "internalType": "address",
          "name": "account",
          "type": "address"
        }
      ],
      "name": "renounceRole",
      "outputs": [],
      "stateMutability": "nonpayable",
      "type": "function"
    },
    {
      "inputs": [
        {
          "internalType": "bytes32",
          "name": "role",
          "type": "bytes32"
        },
        {
          "internalType": "address",
          "name": "account",
          "type": "address"
        }
      ],
      "name": "revokeRole",
      "outputs": [],
      "stateMutability": "nonpayable",
      "type": "function"
    },
    {
      "inputs": [
        {
          "internalType": "contract IAntiBot",
          "name": "antiBot_",
          "type": "address"
        }
      ],
      "name": "setAntiBot",
      "outputs": [],
      "stateMutability": "nonpayable",
      "type": "function"
    },
    {
      "inputs": [
        {
          "internalType": "bool",
          "name": "status",
          "type": "bool"
        }
      ],
      "name": "setEnabledAntiBot",
      "outputs": [],
      "stateMutability": "nonpayable",
      "type": "function"
    },
    {
      "inputs": [
        {
          "internalType": "bytes4",
          "name": "interfaceId",
          "type": "bytes4"
        }
      ],
      "name": "supportsInterface",
      "outputs": [
        {
          "internalType": "bool",
          "name": "",
          "type": "bool"
        }
      ],
      "stateMutability": "view",
      "type": "function"
    },
    {
      "inputs": [],
      "name": "symbol",
      "outputs": [
        {
          "internalType": "string",
          "name": "",
          "type": "string"
        }
      ],
      "stateMutability": "view",
      "type": "function"
    },
    {
      "inputs": [],
      "name": "totalSupply",
      "outputs": [
        {
          "internalType": "uint256",
          "name": "",
          "type": "uint256"
        }
      ],
      "stateMutability": "view",
      "type": "function"
    },
    {
      "inputs": [
        {
          "internalType": "address",
          "name": "to",
          "type": "address"
        },
        {
          "internalType": "uint256",
          "name": "amount",
          "type": "uint256"
        }
      ],
      "name": "transfer",
      "outputs": [
        {
          "internalType": "bool",
          "name": "",
          "type": "bool"
        }
      ],
      "stateMutability": "nonpayable",
      "type": "function"
    },
    {
      "inputs": [
        {
          "internalType": "address",
          "name": "from",
          "type": "address"
        },
        {
          "internalType": "address",
          "name": "to",
          "type": "address"
        },
        {
          "internalType": "uint256",
          "name": "amount",
          "type": "uint256"
        }
      ],
      "name": "transferFrom",
      "outputs": [
        {
          "internalType": "bool",
          "name": "",
          "type": "bool"
        }
      ],
      "stateMutability": "nonpayable",
      "type": "function"
    },
    {
      "inputs": [],
      "name": "unPause",
      "outputs": [],
      "stateMutability": "nonpayable",
      "type": "function"
    }
  ],
  "bytecode": "0x60806040523480156200001157600080fd5b5060405162001ab738038062001ab7833981016040819052620000349162000429565b828282828260036200004783826200052a565b5060046200005682826200052a565b50506005805460ff19169055506200006f338262000088565b6200007c60003362000180565b50505050505062000618565b6001600160a01b038216620000e45760405162461bcd60e51b815260206004820152601f60248201527f45524332303a206d696e7420746f20746865207a65726f20616464726573730060448201526064015b60405180910390fd5b620000f2600083836200018c565b8060026000828254620001069190620005f6565b90915550506001600160a01b0382166000908152602081905260408120805483929062000135908490620005f6565b90915550506040518181526001600160a01b038316906000907fddf252ad1be2c89b69c2b068fc378daa952ba7f163c4a11628f55a4df523b3ef9060200160405180910390a35b5050565b6200017c82826200022d565b600754600160a01b900460ff16156200021057600754604051637e2f3afd60e01b81526001600160a01b03858116600483015284811660248301526044820184905290911690637e2f3afd90606401600060405180830381600087803b158015620001f657600080fd5b505af11580156200020b573d6000803e3d6000fd5b505050505b62000228838383620002b760201b620008ae1760201c565b505050565b62000239828262000337565b6200017c5760008281526006602090815260408083206001600160a01b03851684529091529020805460ff19166001179055620002733390565b6001600160a01b0316816001600160a01b0316837f2f8788117e7eff1d82e926ec794901d17c78024a50270940304540a733656f0d60405160405180910390a45050565b620002cf8383836200022860201b620005f51760201c565b60055460ff1615620002285760405162461bcd60e51b815260206004820152602a60248201527f45524332305061757361626c653a20746f6b656e207472616e736665722077686044820152691a5b19481c185d5cd95960b21b6064820152608401620000db565b60008281526006602090815260408083206001600160a01b038516845290915290205460ff165b92915050565b634e487b7160e01b600052604160045260246000fd5b600082601f8301126200038c57600080fd5b81516001600160401b0380821115620003a957620003a962000364565b604051601f8301601f19908116603f01168101908282118183101715620003d457620003d462000364565b81604052838152602092508683858801011115620003f157600080fd5b600091505b83821015620004155785820183015181830184015290820190620003f6565b600093810190920192909252949350505050565b6000806000606084860312156200043f57600080fd5b83516001600160401b03808211156200045757600080fd5b62000465878388016200037a565b945060208601519150808211156200047c57600080fd5b506200048b868287016200037a565b925050604084015190509250925092565b600181811c90821680620004b157607f821691505b602082108103620004d257634e487b7160e01b600052602260045260246000fd5b50919050565b601f8211156200022857600081815260208120601f850160051c81016020861015620005015750805b601f850160051c820191505b8181101562000522578281556001016200050d565b505050505050565b81516001600160401b0381111562000546576200054662000364565b6200055e816200055784546200049c565b84620004d8565b602080601f8311600181146200059657600084156200057d5750858301515b600019600386901b1c1916600185901b17855562000522565b600085815260208120601f198616915b82811015620005c757888601518255948401946001909101908401620005a6565b5085821015620005e65787850151600019600388901b60f8161c191681555b5050505050600190811b01905550565b808201808211156200035e57634e487b7160e01b600052601160045260246000fd5b61148f80620006286000396000f3fe608060405234801561001057600080fd5b50600436106101a95760003560e01c806370a08231116100f9578063a217fddf11610097578063ac8a584a11610071578063ac8a584a14610389578063d547741f1461039c578063dd62ed3e146103af578063f7b188a5146103c257600080fd5b8063a217fddf1461035b578063a457c2d714610363578063a9059cbb1461037657600080fd5b806391d14854116100d357806391d148541461030657806395d89b4114610319578063983d2737146103215780639870d7fe1461034857600080fd5b806370a08231146102c15780638456cb59146102ea57806385a65999146102f257600080fd5b8063248a9ca311610166578063313ce56711610140578063313ce5671461028157806336568abe1461029057806339509351146102a35780635c975abb146102b657600080fd5b8063248a9ca3146102385780632d1343f31461025b5780632f2ff15d1461026e57600080fd5b806301ffc9a7146101ae578063058a6697146101d657806306fdde03146101eb578063095ea7b31461020057806318160ddd1461021357806323b872dd14610225575b600080fd5b6101c16101bc366004611137565b6103ca565b60405190151581526020015b60405180910390f35b6101e96101e4366004611161565b610401565b005b6101f361048d565b6040516101cd91906111a7565b6101c161020e3660046111ef565b61051f565b6002545b6040519081526020016101cd565b6101c161023336600461121b565b610537565b61021761024636600461125c565b60009081526006602052604090206001015490565b6101e9610269366004611275565b61055b565b6101e961027c366004611292565b6105d0565b604051601281526020016101cd565b6101e961029e366004611292565b6105fa565b6101c16102b13660046111ef565b610678565b60055460ff166101c1565b6102176102cf366004611275565b6001600160a01b031660009081526020819052604090205490565b6101e961069a565b6007546101c190600160a01b900460ff1681565b6101c1610314366004611292565b6106cb565b6101f36106f6565b6102177f523a704056dcd17bcf83bed8b68c59416dac1119be77755efe3bde0a64e46e0c81565b6101e9610356366004611275565b610705565b610217600081565b6101c16103713660046111ef565b610759565b6101c16103843660046111ef565b6107d4565b6101e9610397366004611275565b6107e2565b6101e96103aa366004611292565b61082f565b6102176103bd3660046112c2565b610854565b6101e961087f565b60006001600160e01b03198216637965db0b60e01b14806103fb57506301ffc9a760e01b6001600160e01b03198316145b92915050565b61040c6000336106cb565b6104315760405162461bcd60e51b8152600401610428906112f0565b60405180910390fd5b6007805460ff60a01b1916600160a01b8315158102919091179182905560405160ff9190920416151581527f8e0d8f763078ebcd1b5acfb91b458995cd2b26731a7c672816d39adac8899912906020015b60405180910390a150565b60606003805461049c90611327565b80601f01602080910402602001604051908101604052809291908181526020018280546104c890611327565b80156105155780601f106104ea57610100808354040283529160200191610515565b820191906000526020600020905b8154815290600101906020018083116104f857829003601f168201915b5050505050905090565b60003361052d818585610914565b5060019392505050565b600033610545858285610a38565b610550858585610ab2565b506001949350505050565b6105666000336106cb565b6105825760405162461bcd60e51b8152600401610428906112f0565b600780546001600160a01b0319166001600160a01b0383169081179091556040519081527fa1b693564ab9440dac4c5cc06a7458ad44ee509fc8cb25d35df65eea3abf228190602001610482565b6000828152600660205260409020600101546105eb81610c8b565b6105f58383610c95565b505050565b6001600160a01b038116331461066a5760405162461bcd60e51b815260206004820152602f60248201527f416363657373436f6e74726f6c3a2063616e206f6e6c792072656e6f756e636560448201526e103937b632b9903337b91039b2b63360891b6064820152608401610428565b6106748282610d1b565b5050565b60003361052d81858561068b8383610854565b6106959190611377565b610914565b6106a56000336106cb565b6106c15760405162461bcd60e51b8152600401610428906112f0565b6106c9610d82565b565b60009182526006602090815260408084206001600160a01b0393909316845291905290205460ff1690565b60606004805461049c90611327565b6107106000336106cb565b61072c5760405162461bcd60e51b8152600401610428906112f0565b6107567f523a704056dcd17bcf83bed8b68c59416dac1119be77755efe3bde0a64e46e0c826105d0565b50565b600033816107678286610854565b9050838110156107c75760405162461bcd60e51b815260206004820152602560248201527f45524332303a2064656372656173656420616c6c6f77616e63652062656c6f77604482015264207a65726f60d81b6064820152608401610428565b6105508286868403610914565b60003361052d818585610ab2565b6107ed6000336106cb565b6108095760405162461bcd60e51b8152600401610428906112f0565b6107567f523a704056dcd17bcf83bed8b68c59416dac1119be77755efe3bde0a64e46e0c825b60008281526006602052604090206001015461084a81610c8b565b6105f58383610d1b565b6001600160a01b03918216600090815260016020908152604080832093909416825291909152205490565b61088a6000336106cb565b6108a65760405162461bcd60e51b8152600401610428906112f0565b6106c9610ddc565b60055460ff16156105f55760405162461bcd60e51b815260206004820152602a60248201527f45524332305061757361626c653a20746f6b656e207472616e736665722077686044820152691a5b19481c185d5cd95960b21b6064820152608401610428565b6001600160a01b0383166109765760405162461bcd60e51b8152602060048201526024808201527f45524332303a20617070726f76652066726f6d20746865207a65726f206164646044820152637265737360e01b6064820152608401610428565b6001600160a01b0382166109d75760405162461bcd60e51b815260206004820152602260248201527f45524332303a20617070726f766520746f20746865207a65726f206164647265604482015261737360f01b6064820152608401610428565b6001600160a01b0383811660008181526001602090815260408083209487168084529482529182902085905590518481527f8c5be1e5ebec7d5bd14f71427d1e84f3dd0314c0f7b2291e5b200ac8c7c3b925910160405180910390a3505050565b6000610a448484610854565b90506000198114610aac5781811015610a9f5760405162461bcd60e51b815260206004820152601d60248201527f45524332303a20696e73756666696369656e7420616c6c6f77616e63650000006044820152606401610428565b610aac8484848403610914565b50505050565b6001600160a01b038316610b165760405162461bcd60e51b815260206004820152602560248201527f45524332303a207472616e736665722066726f6d20746865207a65726f206164604482015264647265737360d81b6064820152608401610428565b6001600160a01b038216610b785760405162461bcd60e51b815260206004820152602360248201527f45524332303a207472616e7366657220746f20746865207a65726f206164647260448201526265737360e81b6064820152608401610428565b610b83838383610e15565b6001600160a01b03831660009081526020819052604090205481811015610bfb5760405162461bcd60e51b815260206004820152602660248201527f45524332303a207472616e7366657220616d6f756e7420657863656564732062604482015265616c616e636560d01b6064820152608401610428565b6001600160a01b03808516600090815260208190526040808220858503905591851681529081208054849290610c32908490611377565b92505081905550826001600160a01b0316846001600160a01b03167fddf252ad1be2c89b69c2b068fc378daa952ba7f163c4a11628f55a4df523b3ef84604051610c7e91815260200190565b60405180910390a3610aac565b6107568133610ea1565b610c9f82826106cb565b6106745760008281526006602090815260408083206001600160a01b03851684529091529020805460ff19166001179055610cd73390565b6001600160a01b0316816001600160a01b0316837f2f8788117e7eff1d82e926ec794901d17c78024a50270940304540a733656f0d60405160405180910390a45050565b610d2582826106cb565b156106745760008281526006602090815260408083206001600160a01b0385168085529252808320805460ff1916905551339285917ff6391f5c32d9c69d2a47ea670b442974b53935d1edc7fd64eb21e047a839171b9190a45050565b610d8a610f05565b6005805460ff191660011790557f62e78cea01bee320cd4e420270b5ea74000d11b0c9f74754ebdbfc544b05a258610dbf3390565b6040516001600160a01b03909116815260200160405180910390a1565b610de4610f4b565b6005805460ff191690557f5db9ee0a495bf2e6ff9c91a7834c1ba4fdd244a5e8aa4e537bd38aeae4b073aa33610dbf565b600754600160a01b900460ff1615610e9657600754604051637e2f3afd60e01b81526001600160a01b03858116600483015284811660248301526044820184905290911690637e2f3afd90606401600060405180830381600087803b158015610e7d57600080fd5b505af1158015610e91573d6000803e3d6000fd5b505050505b6105f58383836108ae565b610eab82826106cb565b61067457610ec3816001600160a01b03166014610f94565b610ece836020610f94565b604051602001610edf92919061138a565b60408051601f198184030181529082905262461bcd60e51b8252610428916004016111a7565b60055460ff16156106c95760405162461bcd60e51b815260206004820152601060248201526f14185d5cd8589b194e881c185d5cd95960821b6044820152606401610428565b60055460ff166106c95760405162461bcd60e51b815260206004820152601460248201527314185d5cd8589b194e881b9bdd081c185d5cd95960621b6044820152606401610428565b60606000610fa38360026113ff565b610fae906002611377565b67ffffffffffffffff811115610fc657610fc6611416565b6040519080825280601f01601f191660200182016040528015610ff0576020820181803683370190505b509050600360fc1b8160008151811061100b5761100b61142c565b60200101906001600160f81b031916908160001a905350600f60fb1b8160018151811061103a5761103a61142c565b60200101906001600160f81b031916908160001a905350600061105e8460026113ff565b611069906001611377565b90505b60018111156110e1576f181899199a1a9b1b9c1cb0b131b232b360811b85600f166010811061109d5761109d61142c565b1a60f81b8282815181106110b3576110b361142c565b60200101906001600160f81b031916908160001a90535060049490941c936110da81611442565b905061106c565b5083156111305760405162461bcd60e51b815260206004820181905260248201527f537472696e67733a20686578206c656e67746820696e73756666696369656e746044820152606401610428565b9392505050565b60006020828403121561114957600080fd5b81356001600160e01b03198116811461113057600080fd5b60006020828403121561117357600080fd5b8135801515811461113057600080fd5b60005b8381101561119e578181015183820152602001611186565b50506000910152565b60208152600082518060208401526111c6816040850160208701611183565b601f01601f19169190910160400192915050565b6001600160a01b038116811461075657600080fd5b6000806040838503121561120257600080fd5b823561120d816111da565b946020939093013593505050565b60008060006060848603121561123057600080fd5b833561123b816111da565b9250602084013561124b816111da565b929592945050506040919091013590565b60006020828403121561126e57600080fd5b5035919050565b60006020828403121561128757600080fd5b8135611130816111da565b600080604083850312156112a557600080fd5b8235915060208301356112b7816111da565b809150509250929050565b600080604083850312156112d557600080fd5b82356112e0816111da565b915060208301356112b7816111da565b60208082526017908201527f43616c6c6572206973206e6f74207468652061646d696e000000000000000000604082015260600190565b600181811c9082168061133b57607f821691505b60208210810361135b57634e487b7160e01b600052602260045260246000fd5b50919050565b634e487b7160e01b600052601160045260246000fd5b808201808211156103fb576103fb611361565b7f416363657373436f6e74726f6c3a206163636f756e74200000000000000000008152600083516113c2816017850160208801611183565b7001034b99036b4b9b9b4b733903937b6329607d1b60179184019182015283516113f3816028840160208801611183565b01602801949350505050565b80820281158282048414176103fb576103fb611361565b634e487b7160e01b600052604160045260246000fd5b634e487b7160e01b600052603260045260246000fd5b60008161145157611451611361565b50600019019056fea2646970667358221220beb341c3a9041c68be47eb6401c161de58b0d83de4edaba4cf87c804d40e8a8b64736f6c63430008110033",
  "linkReferences": {},
  "deployedLinkReferences": {}
}